{
  "abi": [
    {
      "inputs": [
        {
          "internalType": "bytes",
          "name": "expected",
          "type": "bytes"
        },
        {
          "internalType": "bytes",
          "name": "actual",
          "type": "bytes"
        }
      ],
      "name": "InvalidResult",
      "type": "error"
    },
    {
      "inputs": [
        {
          "internalType": "address",
          "name": "sender",
          "type": "address"
        },
        {
          "internalType": "string[]",
          "name": "urls",
          "type": "string[]"
        },
        {
          "internalType": "bytes",
          "name": "callData",
          "type": "bytes"
        },
        {
          "internalType": "bytes4",
          "name": "callbackFunction",
          "type": "bytes4"
        },
        {
          "internalType": "bytes",
          "name": "extraData",
          "type": "bytes"
        }
      ],
      "name": "OffchainLookup",
      "type": "error"
    },
    {
      "inputs": [
        {
          "internalType": "bytes32",
          "name": "expected",
          "type": "bytes32"
        },
        {
          "internalType": "bytes32",
          "name": "check",
          "type": "bytes32"
        },
        {
          "internalType": "bytes",
          "name": "data",
          "type": "bytes"
        },
        {
          "internalType": "uint256",
          "name": "blknum",
          "type": "uint256"
        },
        {
          "internalType": "bytes",
          "name": "result",
          "type": "bytes"
        }
      ],
      "name": "RequestError",
      "type": "error"
    },
    {
      "inputs": [
        {
          "internalType": "bytes32",
          "name": "node",
          "type": "bytes32"
        },
        {
          "internalType": "bytes",
          "name": "data",
          "type": "bytes"
        }
      ],
      "name": "ResolverNotSet",
      "type": "error"
    },
    {
      "inputs": [
        {
          "internalType": "address",
          "name": "resolver",
          "type": "address"
        },
        {
          "internalType": "bytes",
          "name": "_call",
          "type": "bytes"
        },
        {
          "internalType": "bytes",
          "name": "_error",
          "type": "bytes"
        }
      ],
      "name": "StaticCallFailed",
      "type": "error"
    },
    {
      "stateMutability": "payable",
      "type": "fallback"
    },
    {
      "inputs": [],
      "name": "BENSYC",
      "outputs": [
        {
          "internalType": "contract iBENSYC",
          "name": "",
          "type": "address"
        }
      ],
      "stateMutability": "view",
      "type": "function"
    },
    {
      "inputs": [],
      "name": "ENS",
      "outputs": [
        {
          "internalType": "contract iENS",
          "name": "",
          "type": "address"
        }
      ],
      "stateMutability": "view",
      "type": "function"
    },
    {
      "inputs": [
        {
          "internalType": "bytes",
          "name": "name",
          "type": "bytes"
        }
      ],
      "name": "ENSDecode",
      "outputs": [
        {
          "internalType": "bytes32",
          "name": "_namehash",
          "type": "bytes32"
        }
      ],
      "stateMutability": "view",
      "type": "function"
    },
    {
      "inputs": [
        {
          "internalType": "uint256",
          "name": "",
          "type": "uint256"
        }
      ],
      "name": "URLS",
      "outputs": [
        {
          "internalType": "string",
          "name": "",
          "type": "string"
        }
      ],
      "stateMutability": "view",
      "type": "function"
    },
    {
      "inputs": [
        {
          "internalType": "string",
          "name": "_gateway",
          "type": "string"
        }
      ],
      "name": "addGateway",
      "outputs": [],
      "stateMutability": "nonpayable",
      "type": "function"
    },
    {
      "inputs": [],
      "name": "baseHash",
      "outputs": [
        {
          "internalType": "bytes32",
          "name": "",
          "type": "bytes32"
        }
      ],
      "stateMutability": "view",
      "type": "function"
    },
    {
      "inputs": [
        {
          "internalType": "bytes32",
          "name": "_namehash",
          "type": "bytes32"
        },
        {
          "internalType": "bytes",
          "name": "_calldata",
          "type": "bytes"
        }
      ],
      "name": "getResult",
      "outputs": [
        {
          "internalType": "bytes",
          "name": "",
          "type": "bytes"
        }
      ],
      "stateMutability": "view",
      "type": "function"
    },
    {
      "inputs": [
        {
          "internalType": "bytes",
          "name": "_label",
          "type": "bytes"
        }
      ],
      "name": "isNFT",
      "outputs": [
        {
          "internalType": "bool",
          "name": "",
          "type": "bool"
        }
      ],
      "stateMutability": "view",
      "type": "function"
    },
    {
      "inputs": [],
      "name": "primaryDomainHash",
      "outputs": [
        {
          "internalType": "bytes32",
          "name": "",
          "type": "bytes32"
        }
      ],
      "stateMutability": "view",
      "type": "function"
    },
    {
      "inputs": [
        {
          "internalType": "uint256",
          "name": "_index",
          "type": "uint256"
        }
      ],
      "name": "removeGateway",
      "outputs": [],
      "stateMutability": "nonpayable",
      "type": "function"
    },
    {
      "inputs": [
        {
          "internalType": "uint256",
          "name": "_index",
          "type": "uint256"
        },
        {
          "internalType": "string",
          "name": "_gateway",
          "type": "string"
        }
      ],
      "name": "replaceGateway",
      "outputs": [],
      "stateMutability": "nonpayable",
      "type": "function"
    },
    {
      "inputs": [],
      "name": "resetGateway",
      "outputs": [],
      "stateMutability": "nonpayable",
      "type": "function"
    },
    {
      "inputs": [
        {
          "internalType": "bytes",
          "name": "name",
          "type": "bytes"
        },
        {
          "internalType": "bytes",
          "name": "data",
          "type": "bytes"
        }
      ],
      "name": "resolve",
      "outputs": [
        {
          "internalType": "bytes",
          "name": "",
          "type": "bytes"
        }
      ],
      "stateMutability": "view",
      "type": "function"
    },
    {
      "inputs": [
        {
          "internalType": "bytes",
          "name": "response",
          "type": "bytes"
        },
        {
          "internalType": "bytes",
          "name": "extraData",
          "type": "bytes"
        }
      ],
      "name": "resolveWithoutProof",
      "outputs": [
        {
          "internalType": "bytes",
          "name": "_result",
          "type": "bytes"
        }
      ],
      "stateMutability": "view",
      "type": "function"
    },
    {
      "inputs": [],
      "name": "secondaryDomainHash",
      "outputs": [
        {
          "internalType": "bytes32",
          "name": "",
          "type": "bytes32"
        }
      ],
      "stateMutability": "view",
      "type": "function"
    },
    {
      "inputs": [
        {
          "internalType": "bytes4",
          "name": "sig",
          "type": "bytes4"
        }
      ],
      "name": "supportsInterface",
      "outputs": [
        {
          "internalType": "bool",
          "name": "",
          "type": "bool"
        }
      ],
      "stateMutability": "pure",
      "type": "function"
    },
    {
      "inputs": [],
      "name": "withdrawEther",
      "outputs": [],
      "stateMutability": "payable",
      "type": "function"
    },
    {
      "inputs": [
        {
          "internalType": "address",
          "name": "token",
          "type": "address"
        },
        {
          "internalType": "uint256",
          "name": "bal",
          "type": "uint256"
        }
      ],
      "name": "withdrawToken",
      "outputs": [],
      "stateMutability": "payable",
      "type": "function"
    },
    {
      "stateMutability": "payable",
      "type": "receive"
    }
  ],
  "bytecode": {
    "object": "0x61012060409080825234620002e35773d3e58bf93a1ad3946bfd2d298b964d4ece1a9e7e6080526e0c2e074ec69a0dfb2997ba6c7d2e1e60a0526020810190600082527f4f5b812789fc606be1b3b16908db13fc7a9adf7ca72641f84d75b47069d3d7f0838201528281526200007581620002e8565b5190208060c0528151602081019182527f45f018cb234434a0198389c8a483d87ace97ad7b298925083904c99a8f46c01d83820152828152620000b881620002e8565b51902060e05260c0518151602081019182527f7a46b638f71fee598932cc3ef366f2f3dcdae81da0064fba529d5ae43b3ac9c583820152828152620000fd81620002e8565b51902061010090815281519091906001600160401b0390608081019082821181831017620002cd57620001a7918452605481527f68747470733a2f2f697066732e696f2f697066732f516d63504566595348633360208201527f664e6b726a446e4d62356838346e5973584a376f6b4152473950465779596b6b848201527f7668322f636369702e6a736f6e3f7b646174617d000000000000000000000000606082015262000304565b815160a0810191821181831017620002cd5762000247918352606381527f68747470733a2f2f626166796265696771767577637674746265697a3634656460208201527f376332376b7a367a726b77737470366775626268666b6a6e786e766662626e76838201527f677a752e697066732e647765622e6c696e6b2f636369702e6a736f6e3f7b646160608201526274617d60e81b608082015262000304565b516119ec9182620004b4833960805182818161016a0152818161028d0152818161030a015281816103c60152818161068e0152818161076301528181610c80015261150c015260a051828181610e5001526118cd015260c051828181610d9901526117d6015260e05182610dd401525181818161061a0152818161173e01526117fe0152f35b634e487b7160e01b600052604160045260246000fd5b600080fd5b606081019081106001600160401b03821117620002cd57604052565b600090815490680100000000000000008210156200049f5760018083018085558310156200048b57838052602080852083519401949093926001600160401b038411620004775785548381811c911680156200046c575b868210146200045857601f81116200040d575b508491601f8511600114620003aa5793945084929190836200039e575b50501b916000199060031b1c1916179055565b0151925038806200038b565b86815285812093958591601f198316915b88838310620003f25750505010620003d8575b505050811b019055565b015160001960f88460031b161c19169055388080620003ce565b858701518855909601959485019487935090810190620003bb565b868352858320601f860160051c8101918787106200044d575b601f0160051c019084905b828110620004415750506200036e565b84815501849062000431565b909150819062000426565b634e487b7160e01b83526022600452602483fd5b90607f16906200035b565b634e487b7160e01b82526041600452602482fd5b634e487b7160e01b84526032600452602484fd5b634e487b7160e01b83526041600452602483fdfe6080604081815260049182361015610025575b505050361561002057600080fd5b600080fd5b600090813560e01c90816301ffc9a714610e7f575080631d2e2cc414610e3b5780633f8770c014610df757806342f0bfd114610dbc578063441af61a14610d815780636af464fe14610d355780637362377b14610c5f57806375fcc91114610c0d5780638e47aeb214610a835780639061b9231461083b5780639e281a981461072a578063acc0f7b11461063d578063c78946a314610602578063d27a1e7d14610397578063d63a4801146102bc578063e1b6a19014610278578063e5dac703146101395763f7213419036100125734610136576020366003190112610136578235906001600160401b038211610136575061012960209361012f92369101611119565b9061163f565b9051908152f35b80fd5b509034610274576020366003190112610274578051623ca35d60e31b81528335906001600160a01b039060208187817f000000000000000000000000000000000000000000000000000000000000000086165afa90811561026a57906101aa9291869161023c575b501633146111af565b8254600019018015610209578082036101cb575b50506101c86113f1565b51f35b6101d76101de91610f95565b5091610f95565b6101f7576101ee92939450611315565b819038806101be565b634e487b7160e01b8452838552602484fd5b825162461bcd60e51b8152602081870152600d60248201526c424c414e4b5f4741544557415960981b6044820152606490fd5b61025d915060203d8111610263575b6102558183610f04565b810190611190565b386101a1565b503d61024b565b84513d87823e3d90fd5b5080fd5b509034610274578160031936011261027457517f00000000000000000000000000000000000000000000000000000000000000006001600160a01b03168152602090f35b5090346102745760203660031901126102745782356001600160401b038111610393576102ec9036908501611119565b8251623ca35d60e31b81529091906001600160a01b039060208188817f000000000000000000000000000000000000000000000000000000000000000086165afa90811561038957906103499291879161023c57501633146111af565b83546801000000000000000081101561037657906103708260016101c89594018755610f95565b90611237565b634e487b7160e01b855260418652602485fd5b85513d88823e3d90fd5b8280fd5b5090346102745781600319360112610274578051623ca35d60e31b81526020906001600160a01b0390828187817f000000000000000000000000000000000000000000000000000000000000000086165afa90811561026a5790610405929186916105eb57501633146111af565b82545b600181116105da575081519361041d85610ed3565b602185527f646174613a746578742f706c61696e2c7b2264617461223a227b646174617d2282860152607d60f81b838601528354156105c7578380528451906001600160401b0382116105b457507f290decd9548b62a8d60345a988386fc84ba6bc95484008f6362f93160ef3e563916104978354610fdf565b601f811161055d575b5080601f83116001146104dc5750849582939495926104d1575b50508160011b916000199060031b1c191617905551f35b0151905038806104ba565b838652601f198316967f510e4e770828ddbf7f7b00ab00a9f6adaf81c0dc9cc85f1f8249c256942d61d9929187905b898210610545575050836001959697981061052c575b505050811b01905551f35b015160001960f88460031b161c19169055388080610521565b8060018596829496860151815501950193019061050b565b6105a4908487527f510e4e770828ddbf7f7b00ab00a9f6adaf81c0dc9cc85f1f8249c256942d61d9601f850160051c8101918486106105aa575b601f0160051c01906111e6565b386104a0565b9091508190610597565b634e487b7160e01b855260419052602484fd5b634e487b7160e01b845260329052602483fd5b6105e26113f1565b60001901610408565b61025d9150843d8611610263576102558183610f04565b509034610274578160031936011261027457602090517f00000000000000000000000000000000000000000000000000000000000000008152f35b5090346102745780600319360112610274578235926024356001600160401b038111610726576106709036908301611119565b8351623ca35d60e31b81529092906001600160a01b039060208184817f000000000000000000000000000000000000000000000000000000000000000086165afa90811561071c57906106cd9291889161023c57501633146111af565b84548610156106e557506103706101c8939495610f95565b606490602085519162461bcd60e51b835282015260116024820152700929cac82989288be9288be988a9c8ea89607b1b6044820152fd5b86513d89823e3d90fd5b8380fd5b509181600319360112610393576001600160a01b039080358281169081900361083757835190623ca35d60e31b825260209283838281887f0000000000000000000000000000000000000000000000000000000000000000165afa9087821561082c578594819361080c575b5060649293885197889586946323b872dd60e01b8652309086015216602484015260243560448401525af180156107ff576107d057505051f35b81813d83116107f8575b6107e48183610f04565b810103126103935751801515036102745751f35b503d6107da565b50505051903d90823e3d90fd5b6064935061082690863d8811610263576102558183610f04565b92610796565b8751903d90823e3d90fd5b8480fd5b508234610274579061085b9161085036611146565b93929591909561163f565b91602494858211600014610a5a57818311610837578186116108375760206108ac918851938186869385850137878a8401528960231983019101604484013781018783820152038084520182610f04565b9492905b6108ba86846118a6565b809483546108c7816115fc565b986108d483519a8b610f04565b818a52601f1991826108e5826115fc565b01875b8c828210610a4757505050865b818110610a0a57505082916109679161095b8960a096516109358161092960209b878d84019633306000194301408a611849565b03868101835282610f04565b5190209185519a8b938985015243878501526060840152608080840152868301906110f4565b03908101885287610f04565b5196630556f18360e41b885260a48801933090890152870152865180925260c486018160c48460051b890101980193905b8382106109de5787806109da89896109bd8e60031993848783030160448801526110f4565b634723d75960e11b606486015284810390920160848501526110f4565b0390fd5b909192939783806109fb60019360c3198c82030186528c516110f4565b9a019201920190939291610998565b60019192969795508b610a2f82610a29610a2382610f95565b50611019565b9261162b565b52610a3a818d61162b565b50019088949695916108f5565b606060209183018201528b9750016108e8565b908211610726578186519160208301378285820152848152610a7b81610ed3565b9492906108b0565b5091903461039357610a9436611146565b81959293950192608082850312610c09578135936020968784013593878101359260608201356001600160401b038111610c0557610ad29201610f77565b92610add84846118a6565b99600181541480610be6575b610b98575050508551610b1b81610b0d8b868c84019633306000198c01408a611849565b03601f198101835282610f04565b519020848114801590610b8c575b610b4357855187815280610b3f818a018b6110f4565b0390f35b610b756109da939289928851978897630f0aa61960e11b8952880152602487015260a0604487015260a48601906110f4565b9160648501526003198483030160848501526110f4565b50600583014311610b29565b88928288928c94610bbf8f88519889976314ba554d60e01b895288015260448701906110f4565b8581036003190160248701528181529386850137828201850152601f01601f191601030190fd5b508a518a8c0120610bf8368486610f40565b8b81519101201415610ae9565b8b80fd5b8680fd5b5034610136578160031936011261013657602435906001600160401b0382116101365750610b3f92610c45610c4c9236908301610f77565b90356118a6565b90519182916020835260208301906110f4565b509182600319360112610393578151623ca35d60e31b8152839060208184817f00000000000000000000000000000000000000000000000000000000000000006001600160a01b03165afa908115610d2b57829182918291610d0d575b50478651915af1610ccb61148c565b5015610cd5575051f35b6020606492519162461bcd60e51b8352820152601360248201527211551217d514905394d1915497d19052531151606a1b6044820152fd5b610d25915060203d8111610263576102558183610f04565b38610cbc565b84513d84823e3d90fd5b5034610136576020366003190112610136578235815481101561027457610d5b90610f95565b939093610d6f57610b3f83610c4c86611019565b634e487b7160e01b8252819052602490fd5b509034610274578160031936011261027457602090517f00000000000000000000000000000000000000000000000000000000000000008152f35b509034610274578160031936011261027457602090517f00000000000000000000000000000000000000000000000000000000000000008152f35b5034610136576020366003190112610136578235906001600160401b0382116101365750610e2d602093610e3292369101610f77565b6114e3565b90519015158152f35b509034610274578160031936011261027457517f00000000000000000000000000000000000000000000000000000000000000006001600160a01b03168152602090f35b90508334610393576020366003190112610393573563ffffffff60e01b81168091036103935760209250639061b92360e01b8114908115610ec2575b5015158152f35b6301ffc9a760e01b14905083610ebb565b606081019081106001600160401b03821117610eee57604052565b634e487b7160e01b600052604160045260246000fd5b90601f801991011681019081106001600160401b03821117610eee57604052565b6001600160401b038111610eee57601f01601f191660200190565b929192610f4c82610f25565b91610f5a6040519384610f04565b829481845281830111610020578281602093846000960137010152565b9080601f8301121561002057816020610f9293359101610f40565b90565b906000918254811015610fcb578280527f290decd9548b62a8d60345a988386fc84ba6bc95484008f6362f93160ef3e563019190565b634e487b7160e01b83526032600452602483fd5b90600182811c9216801561100f575b6020831014610ff957565b634e487b7160e01b600052602260045260246000fd5b91607f1691610fee565b906040519182600082549261102d84610fdf565b90818452600194858116908160001461109c5750600114611059575b505061105792500383610f04565b565b9093915060005260209081600020936000915b81831061108457505061105793508201013880611049565b8554888401850152948501948794509183019161106c565b91505061105794506020925060ff191682840152151560051b8201013880611049565b918091926000905b8282106110df5750116110d8575050565b6000910152565b915080602091830151818601520182916110c7565b9060209161110d815180928185528580860191016110bf565b601f01601f1916010190565b9181601f84011215610020578235916001600160401b038311610020576020838186019501011161002057565b6040600319820112610020576001600160401b0391600435838111610020578261117291600401611119565b939093926024359182116100205761118c91600401611119565b9091565b9081602091031261002057516001600160a01b03811681036100205790565b156111b657565b60405162461bcd60e51b815260206004820152600860248201526727b7363c902232bb60c11b6044820152606490fd5b8181106111f1575050565b600081556001016111e6565b9190601f811161120c57505050565b611057926000526020600020906020601f840160051c830193106105aa57601f0160051c01906111e6565b919392906112ff576001600160401b038111610eee576112618161125b8454610fdf565b846111fd565b6000601f821160011461129b5781929394600092611290575b50508160011b916000199060031b1c1916179055565b01359050388061127a565b601f198216948382526020918281209281905b8882106112e7575050836001959697106112cd575b505050811b019055565b0135600019600384901b60f8161c191690553880806112c3565b806001849682949587013581550195019201906112ae565b634e487b7160e01b600052600060045260246000fd5b908082146113ed576113278154610fdf565b906001600160401b038211610eee57819061134c826113468654610fdf565b866111fd565b600090601f8311600114611382576000926113775750508160011b916000199060031b1c1916179055565b01549050388061127a565b81526020808220858352818320935090601f1985169083905b8282106113d45750509084600195949392106113bb57505050811b019055565b015460001960f88460031b161c191690553880806112c3565b849581929585015481556001809101960194019061139b565b5050565b60008054801561147857600019019061140982610f95565b6114645780611419839254610fdf565b80611425575b50505055565b601f811160011461143b5750555b80388061141f565b8183526020832061145791601f0160051c8101906001016111e6565b8160208120915555611433565b634e487b7160e01b82526004829052602482fd5b634e487b7160e01b82526031600452602482fd5b3d156114b7573d9061149d82610f25565b916114ab6040519384610f04565b82523d6000602084013e565b606090565b9081518110156114cd570160200190565b634e487b7160e01b600052603260045260246000fd5b805160009182915b8083106115855750506040516318160ddd60e01b81529190506020826004817f00000000000000000000000000000000000000000000000000000000000000006001600160a01b03165afa9182156115795760009261154957501090565b90916020823d8211611571575b8161156360209383610f04565b810103126101365750511190565b3d9150611556565b6040513d6000823e3d90fd5b91929091906001600160f81b0319600360fc1b816115a387876114bc565b5116109081156115e2575b506115d957600190600a60ff602f196115c788886114bc565b5160f81c0116910201930191906114eb565b50505050600090565b603960f81b91506115f386866114bc565b511611386115ae565b6001600160401b038111610eee5760051b60200190565b90939293848311610020578411610020578101920390565b80518210156114cd5760209160051b010190565b9091600091829360409081519361016085018581106001600160401b03821117611835578352600a85529495865b610140811061182257505b818110156114cd576001600160f81b03199684820135881615611707576116d66116cf600184818096019b6116af8d838a8d611613565b9035828116918581106116f3575b5050905060f81c0101809a8689611613565b3691610f40565b6116e0828861162b565b526116eb818761162b565b500195611678565b83919250850360031b1b16168038806116bd565b93505050919350600281116000146117fb576002190190819361173361172d848361162b565b516114e3565b156117d057846117657f0000000000000000000000000000000000000000000000000000000000000000945b8361162b565b519384516020809601208451908682019283528582015284815261178881610ed3565b519020955b6117975750505050565b6000190180956117a7828461162b565b51858151910120845190868201928352858201528481526117c781610ed3565b5190209561178d565b846117657f00000000000000000000000000000000000000000000000000000000000000009461175f565b507f0000000000000000000000000000000000000000000000000000000000000000925050565b606060208288018101919091520161166d565b634e487b7160e01b87526041600452602487fd5b926068969594929184526bffffffffffffffffffffffff19809260601b16602085015260601b166034830152604882015261188d82518093602087850191016110bf565b016118a182518093602086850191016110bf565b010190565b604051630178b8bf60e01b8152600481018290529091906001600160a01b036020826024817f000000000000000000000000000000000000000000000000000000000000000085165afa91821561157957600092611996575b50811692831561196b57506000809183519060208501905afa9161192161148c565b921561192c57505090565b6109da836119596040519485946377c6081360e01b865260048601526060602486015260648501906110f4565b838103600319016044850152906110f4565b90506109da60405192839263b0c6789f60e01b845260048401526040602484015260448301906110f4565b6119af91925060203d8111610263576102558183610f04565b90386118ff56fea264697066735822122066cbf1548ca2d1de20028537185ad8cea08be42ecd82e1652fb38e2b00ade24a64736f6c634300080f0033",
    "linkReferences": {}
  },
  "methodIdentifiers": {
    "BENSYC()": "e1b6a190",
    "ENS()": "1d2e2cc4",
    "ENSDecode(bytes)": "f7213419",
    "URLS(uint256)": "6af464fe",
    "addGateway(string)": "d63a4801",
    "baseHash()": "441af61a",
    "getResult(bytes32,bytes)": "75fcc911",
    "isNFT(bytes)": "3f8770c0",
    "primaryDomainHash()": "c78946a3",
    "removeGateway(uint256)": "e5dac703",
    "replaceGateway(uint256,string)": "acc0f7b1",
    "resetGateway()": "d27a1e7d",
    "resolve(bytes,bytes)": "9061b923",
    "resolveWithoutProof(bytes,bytes)": "8e47aeb2",
    "secondaryDomainHash()": "42f0bfd1",
    "supportsInterface(bytes4)": "01ffc9a7",
    "withdrawEther()": "7362377b",
    "withdrawToken(address,uint256)": "9e281a98"
  },
  "id": 10
}