{
  "abi": [
    {
      "inputs": [
        {
          "internalType": "bytes",
          "name": "expected",
          "type": "bytes"
        },
        {
          "internalType": "bytes",
          "name": "actual",
          "type": "bytes"
        }
      ],
      "name": "InvalidResult",
      "type": "error"
    },
    {
      "inputs": [
        {
          "internalType": "address",
          "name": "sender",
          "type": "address"
        },
        {
          "internalType": "string[]",
          "name": "urls",
          "type": "string[]"
        },
        {
          "internalType": "bytes",
          "name": "callData",
          "type": "bytes"
        },
        {
          "internalType": "bytes4",
          "name": "callbackFunction",
          "type": "bytes4"
        },
        {
          "internalType": "bytes",
          "name": "extraData",
          "type": "bytes"
        }
      ],
      "name": "OffchainLookup",
      "type": "error"
    },
    {
      "inputs": [
        {
          "internalType": "bytes32",
          "name": "expected",
          "type": "bytes32"
        },
        {
          "internalType": "bytes32",
          "name": "check",
          "type": "bytes32"
        },
        {
          "internalType": "bytes",
          "name": "data",
          "type": "bytes"
        },
        {
          "internalType": "uint256",
          "name": "blknum",
          "type": "uint256"
        },
        {
          "internalType": "bytes",
          "name": "result",
          "type": "bytes"
        }
      ],
      "name": "RequestError",
      "type": "error"
    },
    {
      "inputs": [
        {
          "internalType": "bytes32",
          "name": "node",
          "type": "bytes32"
        },
        {
          "internalType": "bytes",
          "name": "data",
          "type": "bytes"
        }
      ],
      "name": "ResolverNotSet",
      "type": "error"
    },
    {
      "inputs": [
        {
          "internalType": "address",
          "name": "resolver",
          "type": "address"
        },
        {
          "internalType": "bytes",
          "name": "_call",
          "type": "bytes"
        },
        {
          "internalType": "bytes",
          "name": "_error",
          "type": "bytes"
        }
      ],
      "name": "StaticCallFailed",
      "type": "error"
    },
    {
      "stateMutability": "payable",
      "type": "fallback"
    },
    {
      "inputs": [],
      "name": "BENSYC",
      "outputs": [
        {
          "internalType": "contract iBENSYC",
          "name": "",
          "type": "address"
        }
      ],
      "stateMutability": "view",
      "type": "function"
    },
    {
      "inputs": [],
      "name": "ENS",
      "outputs": [
        {
          "internalType": "contract iENS",
          "name": "",
          "type": "address"
        }
      ],
      "stateMutability": "view",
      "type": "function"
    },
    {
      "inputs": [
        {
          "internalType": "bytes",
          "name": "name",
          "type": "bytes"
        }
      ],
      "name": "ENSDecode",
      "outputs": [
        {
          "internalType": "bytes32",
          "name": "_namehash",
          "type": "bytes32"
        }
      ],
      "stateMutability": "view",
      "type": "function"
    },
    {
      "inputs": [],
      "name": "baseHash",
      "outputs": [
        {
          "internalType": "bytes32",
          "name": "",
          "type": "bytes32"
        }
      ],
      "stateMutability": "view",
      "type": "function"
    },
    {
      "inputs": [
        {
          "internalType": "bytes32",
          "name": "_namehash",
          "type": "bytes32"
        },
        {
          "internalType": "bytes",
          "name": "_calldata",
          "type": "bytes"
        }
      ],
      "name": "getResult",
      "outputs": [
        {
          "internalType": "bytes",
          "name": "",
          "type": "bytes"
        }
      ],
      "stateMutability": "view",
      "type": "function"
    },
    {
      "inputs": [],
      "name": "primaryDomainHash",
      "outputs": [
        {
          "internalType": "bytes32",
          "name": "",
          "type": "bytes32"
        }
      ],
      "stateMutability": "view",
      "type": "function"
    },
    {
      "inputs": [
        {
          "internalType": "bytes",
          "name": "name",
          "type": "bytes"
        },
        {
          "internalType": "bytes",
          "name": "data",
          "type": "bytes"
        }
      ],
      "name": "resolve",
      "outputs": [
        {
          "internalType": "bytes",
          "name": "",
          "type": "bytes"
        }
      ],
      "stateMutability": "view",
      "type": "function"
    },
    {
      "inputs": [
        {
          "internalType": "bytes",
          "name": "response",
          "type": "bytes"
        },
        {
          "internalType": "bytes",
          "name": "extraData",
          "type": "bytes"
        }
      ],
      "name": "resolveOnChain",
      "outputs": [
        {
          "internalType": "bytes",
          "name": "_result",
          "type": "bytes"
        }
      ],
      "stateMutability": "view",
      "type": "function"
    },
    {
      "inputs": [],
      "name": "secondaryDomainHash",
      "outputs": [
        {
          "internalType": "bytes32",
          "name": "",
          "type": "bytes32"
        }
      ],
      "stateMutability": "view",
      "type": "function"
    },
    {
      "inputs": [
        {
          "internalType": "bytes4",
          "name": "sig",
          "type": "bytes4"
        }
      ],
      "name": "supportsInterface",
      "outputs": [
        {
          "internalType": "bool",
          "name": "",
          "type": "bool"
        }
      ],
      "stateMutability": "pure",
      "type": "function"
    },
    {
      "inputs": [],
      "name": "withdrawEther",
      "outputs": [],
      "stateMutability": "payable",
      "type": "function"
    },
    {
      "inputs": [
        {
          "internalType": "address",
          "name": "token",
          "type": "address"
        },
        {
          "internalType": "uint256",
          "name": "bal",
          "type": "uint256"
        }
      ],
      "name": "withdrawToken",
      "outputs": [],
      "stateMutability": "payable",
      "type": "function"
    },
    {
      "stateMutability": "payable",
      "type": "receive"
    }
  ],
  "bytecode": {
    "object": "0x610120604090808252346101695773d3e58bf93a1ad3946bfd2d298b964d4ece1a9e7e6080526e0c2e074ec69a0dfb2997ba6c7d2e1e60a0526020810190600082527f4f5b812789fc606be1b3b16908db13fc7a9adf7ca72641f84d75b47069d3d7f0838201528281526100728161016e565b5190208060c0528151602081019182527f45f018cb234434a0198389c8a483d87ace97ad7b298925083904c99a8f46c01d838201528281526100b38161016e565b51902060e05260c0518151602081019182527f7a46b638f71fee598932cc3ef366f2f3dcdae81da0064fba529d5ae43b3ac9c5838201528281526100f68161016e565b5190209061010091825251610f1a91826101a0833960805182818161010d015281816102d501526106d9015260a05182818161081901528181610c1f0152610def015260c0518281816107a60152610cbb015260e051826107e101525181818161015801528181610bc50152610d200152f35b600080fd5b606081019081106001600160401b0382111761018957604052565b634e487b7160e01b600052604160045260246000fdfe6080604081815260049182361015610025575b505050361561002057600080fd5b600080fd5b600090813560e01c90816301ffc9a714610848575080631d2e2cc41461080457806342f0bfd1146107c9578063441af61a1461078e5780637362377b146106b857806375fcc911146106545780639061b923146103bd5780639e281a981461029c578063a09d44401461017b578063c78946a314610140578063e1b6a190146100f85763f72134190361001257346100f55760203660031901126100f55782359067ffffffffffffffff82116100f557506100e86020936100ee9236910161099d565b90610ac4565b9051908152f35b80fd5b50903461013c578160031936011261013c57517f00000000000000000000000000000000000000000000000000000000000000006001600160a01b03168152602090f35b5080fd5b50903461013c578160031936011261013c57602090517f00000000000000000000000000000000000000000000000000000000000000008152f35b50903461013c5761018b366109cb565b95919490926020958787116102985786853595013592601f1998888a820110610282575b508188116100f557506101cb90823592888a369301910161090c565b906101d68282610dc8565b97610201875191826101f58c878d84019733306000198d01408b610d6b565b039081018352826108ce565b519020848114801590610276575b61022957855187815280610225818a018b610978565b0390f35b61025b610272939289928851978897630f0aa61960e11b8952880152602487015260a0604487015260a4860190610978565b916064850152600319848303016084850152610978565b0390fd5b5060058301431161020f565b600019908903890160031b1b90931692386101af565b8280fd5b509181600319360112610298576001600160a01b03908035828116908190036103b957835190623ca35d60e31b825260209283838281887f0000000000000000000000000000000000000000000000000000000000000000165afa908782156103ae578594819361037e575b5060649293885197889586946323b872dd60e01b8652309086015216602484015260243560448401525af180156103715761034257505051f35b81813d831161036a575b61035681836108ce565b8101031261029857518015150361013c5751f35b503d61034c565b50505051903d90823e3d90fd5b606493506103a190863d88116103a7575b61039981836108ce565b810190610a16565b92610308565b503d61038f565b8751903d90823e3d90fd5b8480fd5b50903461013c57906103dd916103d2366109cb565b969295919095610ac4565b9460249485821115610628578183116103b9578186116103b957602061042c9185519381868693858501378a8a84015289602319830191016044840137810187838201520380845201826108ce565b92905b6104398487610dc8565b8351966104458861089c565b60028852835b858110610615575060a0908551926104628461089c565b602184526020937f646174613a746578742f706c61696e2c7b2264617461223a227b646174617d2285820152607d60f81b888201526104a08b610a7d565b526104aa8a610a7d565b5086516104b68161089c565b602781527f646174613a6170706c69636174696f6e2f6a736f6e2c7b2264617461223a227b8582015266646174617d227d60c81b888201526104f78b610aa0565b526105018a610aa0565b5061055a87519883868b0152610532898b8351610523818484018c8801610943565b8101038881018d52018b6108ce565b61054c89519384928884019633306000194301408a610d6b565b03601f1981018352826108ce565b519020948051958387015243818701528086526105768661089c565b5196630556f18360e41b885260a48801933090890152870152865180925260c486018160c48460051b890101980193905b8382106105e957878061027289896105cc8e6003199384878303016044880152610978565b630282751160e61b60648601528481039092016084850152610978565b9091929397838061060660019360c3198c82030186528c51610978565b9a0192019201909392916105a7565b60606020828b018101919091520161044b565b9082116106505781835191602083013785858201528481526106498161089c565b929061042f565b8380fd5b50346100f557816003193601126100f5576024359067ffffffffffffffff82116100f557366023830112156100f557506102259261069e6106a5923690602481850135910161090c565b9035610dc8565b9051918291602083526020830190610978565b509182600319360112610298578151623ca35d60e31b8152839060208184817f00000000000000000000000000000000000000000000000000000000000000006001600160a01b03165afa90811561078457829182918291610766575b50478651915af1610724610a35565b501561072e575051f35b6020606492519162461bcd60e51b8352820152601360248201527211551217d514905394d1915497d19052531151606a1b6044820152fd5b61077e915060203d81116103a75761039981836108ce565b38610715565b84513d84823e3d90fd5b50903461013c578160031936011261013c57602090517f00000000000000000000000000000000000000000000000000000000000000008152f35b50903461013c578160031936011261013c57602090517f00000000000000000000000000000000000000000000000000000000000000008152f35b50903461013c578160031936011261013c57517f00000000000000000000000000000000000000000000000000000000000000006001600160a01b03168152602090f35b90508334610298576020366003190112610298573563ffffffff60e01b81168091036102985760209250639061b92360e01b811490811561088b575b5015158152f35b6301ffc9a760e01b14905083610884565b6060810190811067ffffffffffffffff8211176108b857604052565b634e487b7160e01b600052604160045260246000fd5b90601f8019910116810190811067ffffffffffffffff8211176108b857604052565b67ffffffffffffffff81116108b857601f01601f191660200190565b929192610918826108f0565b9161092660405193846108ce565b829481845281830111610020578281602093846000960137010152565b918091926000905b82821061096357501161095c575050565b6000910152565b9150806020918301518186015201829161094b565b9060209161099181518092818552858086019101610943565b601f01601f1916010190565b9181601f840112156100205782359167ffffffffffffffff8311610020576020838186019501011161002057565b60406003198201126100205767ffffffffffffffff9160043583811161002057826109f89160040161099d565b9390939260243591821161002057610a129160040161099d565b9091565b9081602091031261002057516001600160a01b03811681036100205790565b3d15610a60573d90610a46826108f0565b91610a5460405193846108ce565b82523d6000602084013e565b606090565b90939293848311610020578411610020578101920390565b805115610a8a5760200190565b634e487b7160e01b600052603260045260246000fd5b805160011015610a8a5760400190565b8051821015610a8a5760209160051b010190565b906000918293604092835193610160850185811067ffffffffffffffff821117610d57578152600a85529495865b6101408110610d4457505b81811015610a8a576001600160f81b03199684820135881615610b9057600191828101610b2c8183878a610a65565b9a90358181169b868110610b7a575b50505083610b5d92610b56929b60f81c0101809a8689610a65565b369161090c565b610b678288610ab0565b52610b728187610ab0565b500195610afd565b860360031b82901b161699508382610b56610b3b565b9350505092935060028111600014610d1d5760021901928391610bb38382610ab0565b519283516020809501208351858101917f0000000000000000000000000000000000000000000000000000000000000000835285820152848152610bf68161089c565b5190208351630178b8bf60e01b8152600481018290529096906001600160a01b039086816024817f000000000000000000000000000000000000000000000000000000000000000086165afa908115610d1257600091610cf5575b501615610c9f575b50805b610c665750505050565b600019018095610c768284610ab0565b5185815191012084519086820192835285820152848152610c968161089c565b51902095610c5c565b819650610cac9083610ab0565b518481519101208351858101917f0000000000000000000000000000000000000000000000000000000000000000835285820152848152610cec8161089c565b51902095610c59565b610d0c9150873d89116103a75761039981836108ce565b38610c51565b86513d6000823e3d90fd5b507f0000000000000000000000000000000000000000000000000000000000000000925050565b6060602082880181019190915201610af2565b634e487b7160e01b87526041600452602487fd5b926068969594929184526bffffffffffffffffffffffff19809260601b16602085015260601b1660348301526048820152610daf8251809360208785019101610943565b01610dc38251809360208685019101610943565b010190565b604051630178b8bf60e01b8152600481018290529091906001600160a01b036020826024817f000000000000000000000000000000000000000000000000000000000000000085165afa918215610ed857600092610eb8575b508116928315610e8d57506000809183519060208501905afa91610e43610a35565b9215610e4e57505090565b61027283610e7b6040519485946377c6081360e01b86526004860152606060248601526064850190610978565b83810360031901604485015290610978565b905061027260405192839263b0c6789f60e01b84526004840152604060248401526044830190610978565b610ed191925060203d81116103a75761039981836108ce565b9038610e21565b6040513d6000823e3d90fdfea264697066735822122033a99d553627d979763e037f41eb9051d7dbae81b08afc9f37a17d794491df9264736f6c634300080f0033",
    "linkReferences": {}
  },
  "methodIdentifiers": {
    "BENSYC()": "e1b6a190",
    "ENS()": "1d2e2cc4",
    "ENSDecode(bytes)": "f7213419",
    "baseHash()": "441af61a",
    "getResult(bytes32,bytes)": "75fcc911",
    "primaryDomainHash()": "c78946a3",
    "resolve(bytes,bytes)": "9061b923",
    "resolveOnChain(bytes,bytes)": "a09d4440",
    "secondaryDomainHash()": "42f0bfd1",
    "supportsInterface(bytes4)": "01ffc9a7",
    "withdrawEther()": "7362377b",
    "withdrawToken(address,uint256)": "9e281a98"
  },
  "id": 10
}