{
  "abi": [
    {
      "inputs": [
        {
          "internalType": "bytes",
          "name": "expected",
          "type": "bytes"
        },
        {
          "internalType": "bytes",
          "name": "actual",
          "type": "bytes"
        }
      ],
      "name": "InvalidResult",
      "type": "error"
    },
    {
      "inputs": [
        {
          "internalType": "address",
          "name": "sender",
          "type": "address"
        },
        {
          "internalType": "string[]",
          "name": "urls",
          "type": "string[]"
        },
        {
          "internalType": "bytes",
          "name": "callData",
          "type": "bytes"
        },
        {
          "internalType": "bytes4",
          "name": "callbackFunction",
          "type": "bytes4"
        },
        {
          "internalType": "bytes",
          "name": "extraData",
          "type": "bytes"
        }
      ],
      "name": "OffchainLookup",
      "type": "error"
    },
    {
      "inputs": [
        {
          "internalType": "bytes32",
          "name": "expected",
          "type": "bytes32"
        },
        {
          "internalType": "bytes32",
          "name": "check",
          "type": "bytes32"
        },
        {
          "internalType": "bytes",
          "name": "data",
          "type": "bytes"
        },
        {
          "internalType": "uint256",
          "name": "blknum",
          "type": "uint256"
        },
        {
          "internalType": "bytes",
          "name": "result",
          "type": "bytes"
        }
      ],
      "name": "RequestError",
      "type": "error"
    },
    {
      "inputs": [
        {
          "internalType": "bytes32",
          "name": "node",
          "type": "bytes32"
        },
        {
          "internalType": "bytes",
          "name": "data",
          "type": "bytes"
        }
      ],
      "name": "ResolverNotSet",
      "type": "error"
    },
    {
      "inputs": [
        {
          "internalType": "address",
          "name": "resolver",
          "type": "address"
        },
        {
          "internalType": "bytes",
          "name": "_call",
          "type": "bytes"
        },
        {
          "internalType": "bytes",
          "name": "_error",
          "type": "bytes"
        }
      ],
      "name": "StaticCallFailed",
      "type": "error"
    },
    {
      "stateMutability": "payable",
      "type": "fallback"
    },
    {
      "inputs": [],
      "name": "BENSYC",
      "outputs": [
        {
          "internalType": "contract iBENSYC",
          "name": "",
          "type": "address"
        }
      ],
      "stateMutability": "view",
      "type": "function"
    },
    {
      "inputs": [],
      "name": "ENS",
      "outputs": [
        {
          "internalType": "contract iENS",
          "name": "",
          "type": "address"
        }
      ],
      "stateMutability": "view",
      "type": "function"
    },
    {
      "inputs": [
        {
          "internalType": "bytes",
          "name": "name",
          "type": "bytes"
        }
      ],
      "name": "ENSDecode",
      "outputs": [
        {
          "internalType": "bytes32",
          "name": "_namehash",
          "type": "bytes32"
        }
      ],
      "stateMutability": "view",
      "type": "function"
    },
    {
      "inputs": [
        {
          "internalType": "uint256",
          "name": "",
          "type": "uint256"
        }
      ],
      "name": "URLS",
      "outputs": [
        {
          "internalType": "string",
          "name": "",
          "type": "string"
        }
      ],
      "stateMutability": "view",
      "type": "function"
    },
    {
      "inputs": [
        {
          "internalType": "string",
          "name": "_gateway",
          "type": "string"
        }
      ],
      "name": "addGateway",
      "outputs": [],
      "stateMutability": "nonpayable",
      "type": "function"
    },
    {
      "inputs": [],
      "name": "baseHash",
      "outputs": [
        {
          "internalType": "bytes32",
          "name": "",
          "type": "bytes32"
        }
      ],
      "stateMutability": "view",
      "type": "function"
    },
    {
      "inputs": [
        {
          "internalType": "bytes32",
          "name": "_namehash",
          "type": "bytes32"
        },
        {
          "internalType": "bytes",
          "name": "_calldata",
          "type": "bytes"
        }
      ],
      "name": "getResult",
      "outputs": [
        {
          "internalType": "bytes",
          "name": "",
          "type": "bytes"
        }
      ],
      "stateMutability": "view",
      "type": "function"
    },
    {
      "inputs": [
        {
          "internalType": "bytes",
          "name": "_label",
          "type": "bytes"
        }
      ],
      "name": "isNFT",
      "outputs": [
        {
          "internalType": "bool",
          "name": "",
          "type": "bool"
        }
      ],
      "stateMutability": "view",
      "type": "function"
    },
    {
      "inputs": [],
      "name": "primaryDomainHash",
      "outputs": [
        {
          "internalType": "bytes32",
          "name": "",
          "type": "bytes32"
        }
      ],
      "stateMutability": "view",
      "type": "function"
    },
    {
      "inputs": [
        {
          "internalType": "uint256",
          "name": "_index",
          "type": "uint256"
        }
      ],
      "name": "removeGateway",
      "outputs": [],
      "stateMutability": "nonpayable",
      "type": "function"
    },
    {
      "inputs": [
        {
          "internalType": "uint256",
          "name": "_index",
          "type": "uint256"
        },
        {
          "internalType": "string",
          "name": "_gateway",
          "type": "string"
        }
      ],
      "name": "replaceGateway",
      "outputs": [],
      "stateMutability": "nonpayable",
      "type": "function"
    },
    {
      "inputs": [],
      "name": "resetGateway",
      "outputs": [],
      "stateMutability": "nonpayable",
      "type": "function"
    },
    {
      "inputs": [
        {
          "internalType": "bytes",
          "name": "name",
          "type": "bytes"
        },
        {
          "internalType": "bytes",
          "name": "data",
          "type": "bytes"
        }
      ],
      "name": "resolve",
      "outputs": [
        {
          "internalType": "bytes",
          "name": "",
          "type": "bytes"
        }
      ],
      "stateMutability": "view",
      "type": "function"
    },
    {
      "inputs": [
        {
          "internalType": "bytes",
          "name": "response",
          "type": "bytes"
        },
        {
          "internalType": "bytes",
          "name": "extraData",
          "type": "bytes"
        }
      ],
      "name": "resolveWithoutProof",
      "outputs": [
        {
          "internalType": "bytes",
          "name": "_result",
          "type": "bytes"
        }
      ],
      "stateMutability": "view",
      "type": "function"
    },
    {
      "inputs": [],
      "name": "secondaryDomainHash",
      "outputs": [
        {
          "internalType": "bytes32",
          "name": "",
          "type": "bytes32"
        }
      ],
      "stateMutability": "view",
      "type": "function"
    },
    {
      "inputs": [
        {
          "internalType": "bytes4",
          "name": "sig",
          "type": "bytes4"
        }
      ],
      "name": "supportsInterface",
      "outputs": [
        {
          "internalType": "bool",
          "name": "",
          "type": "bool"
        }
      ],
      "stateMutability": "pure",
      "type": "function"
    },
    {
      "inputs": [],
      "name": "toggleGateway",
      "outputs": [],
      "stateMutability": "nonpayable",
      "type": "function"
    },
    {
      "inputs": [],
      "name": "withdrawEther",
      "outputs": [],
      "stateMutability": "payable",
      "type": "function"
    },
    {
      "inputs": [
        {
          "internalType": "address",
          "name": "token",
          "type": "address"
        },
        {
          "internalType": "uint256",
          "name": "bal",
          "type": "uint256"
        }
      ],
      "name": "withdrawToken",
      "outputs": [],
      "stateMutability": "payable",
      "type": "function"
    },
    {
      "stateMutability": "payable",
      "type": "receive"
    }
  ],
  "bytecode": {
    "object": "0x61012060409080825234620002ea5773d3e58bf93a1ad3946bfd2d298b964d4ece1a9e7e6080526e0c2e074ec69a0dfb2997ba6c7d2e1e60a0526020810190600082527f4f5b812789fc606be1b3b16908db13fc7a9adf7ca72641f84d75b47069d3d7f0838201528281526200007581620002ef565b5190208060c0528151602081019182527f45f018cb234434a0198389c8a483d87ace97ad7b298925083904c99a8f46c01d83820152828152620000b881620002ef565b51902060e05260c0518151602081019182527f7a46b638f71fee598932cc3ef366f2f3dcdae81da0064fba529d5ae43b3ac9c583820152828152620000fd81620002ef565b51902061010090815281519091906001600160401b0390608081019082821181831017620002d457620001a7918452605481527f68747470733a2f2f697066732e696f2f697066732f516d63504566595348633360208201527f664e6b726a446e4d62356838346e5973584a376f6b4152473950465779596b6b848201527f7668322f636369702e6a736f6e3f7b646174617d00000000000000000000000060608201526200030b565b815160a0810191821181831017620002d45762000247918352606381527f68747470733a2f2f626166796265696771767577637674746265697a3634656460208201527f376332376b7a367a726b77737470366775626268666b6a6e786e766662626e76838201527f677a752e697066732e647765622e6c696e6b2f636369702e6a736f6e3f7b646160608201526274617d60e81b60808201526200030b565b51611b5d9182620004bb833960805182818161017501528181610335015281816103b601528181610494015281816106c90152818161079f01528181610cbc01528181610ea6015261167d015260a051828181610f0d0152611a3e015260c051828181610dd50152611947015260e05182610e10015251818181610655015281816118af015261196f0152f35b634e487b7160e01b600052604160045260246000fd5b600080fd5b606081019081106001600160401b03821117620002d457604052565b60009081549068010000000000000000821015620004a65760018083018085558310156200049257838052602080852083519401949093926001600160401b0384116200047e5785548381811c9116801562000473575b868210146200045f57601f811162000414575b508491601f8511600114620003b1579394508492919083620003a5575b50501b916000199060031b1c1916179055565b01519250388062000392565b86815285812093958591601f198316915b88838310620003f95750505010620003df575b505050811b019055565b015160001960f88460031b161c19169055388080620003d5565b858701518855909601959485019487935090810190620003c2565b868352858320601f860160051c81019187871062000454575b601f0160051c019084905b8281106200044857505062000375565b84815501849062000438565b90915081906200042d565b634e487b7160e01b83526022600452602483fd5b90607f169062000362565b634e487b7160e01b82526041600452602482fd5b634e487b7160e01b84526032600452602484fd5b634e487b7160e01b83526041600452602483fdfe6080604081815260049182361015610025575b505050361561002057600080fd5b600080fd5b600090813560e01c90816301ffc9a714610f3c575080631d2e2cc414610ef85780631fe6473514610e775780633f8770c014610e3357806342f0bfd114610df8578063441af61a14610dbd5780636af464fe14610d715780637362377b14610c9b57806375fcc91114610c495780638e47aeb214610abf5780639061b923146108775780639e281a9814610766578063acc0f7b114610678578063c78946a31461063d578063d27a1e7d14610464578063d63a480114610368578063e1b6a19014610320578063e5dac703146101445763f7213419036100125734610141576020366003190112610141578235906001600160401b038211610141575061013460209361013a923691016111d6565b906117b0565b9051908152f35b80fd5b50913461031c5760209081600319360112610318578251623ca35d60e31b81528135906001600160a01b03848285817f000000000000000000000000000000000000000000000000000000000000000085165afa801561030e576101b29288916102e1575b5016331461126c565b6101c160ff60015416156112a3565b600019908186540180156102ae57808203610274575b5050845480156102615701916101ec83611052565b92909261024f5750908491610201825461109c565b908161020f575b5050505551f35b81601f85931160011461022a57505050555b82388080610208565b83835281832061024591601f0160051c8101906001016112d8565b8120915555610221565b634e487b7160e01b8652859052602485fd5b634e487b7160e01b865260318352602486fd5b61028061028791611052565b5091611052565b61029c579061029591611412565b38806101d7565b634e487b7160e01b8752868452602487fd5b855162461bcd60e51b8152808501869052600d60248201526c424c414e4b5f4741544557415960981b6044820152606490fd5b6103019150863d8811610307575b6102f98183610fc1565b81019061124d565b386101a9565b503d6102ef565b86513d89823e3d90fd5b8380fd5b8280fd5b509034610364578160031936011261036457517f00000000000000000000000000000000000000000000000000000000000000006001600160a01b03168152602090f35b5080fd5b5090346103645760203660031901126103645782356001600160401b03811161031c5761039890369085016111d6565b8251623ca35d60e31b81529091906001600160a01b039060208188817f000000000000000000000000000000000000000000000000000000000000000086165afa90811561045a57906103f592918791610442575016331461126c565b61040460ff60015416156112a3565b8354600160401b81101561042f579061042682600161042c9594018755611052565b90611334565b51f35b634e487b7160e01b855260418652602485fd5b610301915060203d8111610307576102f98183610fc1565b85513d88823e3d90fd5b50913461031c578260031936011261031c578151623ca35d60e31b81526020916001600160a01b039083908390817f000000000000000000000000000000000000000000000000000000000000000085165afa8015610633576104d092869161061c575016331461126c565b6001906104e160ff835416156112a3565b83548480558061058b575b5061057e9061053684516104ff81610f90565b602181527f646174613a746578742f706c61696e2c7b2264617461223a227b646174617d2283820152607d60f81b868201526114ee565b7f646174613a6170706c69636174696f6e2f6a736f6e2c7b2264617461223a227b84519161056383610f90565b6027835282015266646174617d227d60c81b848201526114ee565b805460ff19168117905551f35b848052827f290decd9548b62a8d60345a988386fc84ba6bc95484008f6362f93160ef3e563918201915b8281106105c35750506104ec565b6105cd815461109c565b806105dc575b500183906105b5565b601f90838282116001146105f7575050508681555b386105d3565b61060f92848b52878b20920160051c820191016112d8565b86848120818355556105f1565b6103019150843d8611610307576102f98183610fc1565b84513d87823e3d90fd5b509034610364578160031936011261036457602090517f00000000000000000000000000000000000000000000000000000000000000008152f35b5090346103645780600319360112610364578235926024356001600160401b038111610318576106ab90369083016111d6565b8351623ca35d60e31b81529092906001600160a01b039060208184817f000000000000000000000000000000000000000000000000000000000000000086165afa90811561030e579061070892918891610442575016331461126c565b61071760ff60015416156112a3565b845486101561072f575061042661042c939495611052565b606490602085519162461bcd60e51b835282015260116024820152700929cac82989288be9288be988a9c8ea89607b1b6044820152fd5b50918160031936011261031c576001600160a01b039080358281169081900361087357835190623ca35d60e31b825260209283838281887f0000000000000000000000000000000000000000000000000000000000000000165afa908782156108685785948193610848575b5060649293885197889586946323b872dd60e01b8652309086015216602484015260243560448401525af1801561083b5761080c57505051f35b81813d8311610834575b6108208183610fc1565b8101031261031c5751801515036103645751f35b503d610816565b50505051903d90823e3d90fd5b6064935061086290863d8811610307576102f98183610fc1565b926107d2565b8751903d90823e3d90fd5b8480fd5b50823461036457906108979161088c36611203565b9392959190956117b0565b91602494858211600014610a9657818311610873578186116108735760206108e8918851938186869385850137878a8401528960231983019101604484013781018783820152038084520182610fc1565b9492905b6108f68684611a17565b809483546109038161176d565b9861091083519a8b610fc1565b818a52601f1991826109218261176d565b01875b8c828210610a8357505050865b818110610a4657505082916109a3916109978960a096516109718161096560209b878d84019633306000194301408a6119ba565b03868101835282610fc1565b5190209185519a8b938985015243878501526060840152608080840152868301906111b1565b03908101885287610fc1565b5196630556f18360e41b885260a48801933090890152870152865180925260c486018160c48460051b890101980193905b838210610a1a578780610a1689896109f98e60031993848783030160448801526111b1565b634723d75960e11b606486015284810390920160848501526111b1565b0390fd5b90919293978380610a3760019360c3198c82030186528c516111b1565b9a0192019201909392916109d4565b60019192969795508b610a6b82610a65610a5f82611052565b506110d6565b9261179c565b52610a76818d61179c565b5001908894969591610931565b606060209183018201528b975001610924565b908211610318578186519160208301378285820152848152610ab781610f90565b9492906108ec565b5091903461031c57610ad036611203565b81959293950192608082850312610c45578135936020968784013593878101359260608201356001600160401b038111610c4157610b0e9201611034565b92610b198484611a17565b99600181541480610c22575b610bd4575050508551610b5781610b498b868c84019633306000198c01408a6119ba565b03601f198101835282610fc1565b519020848114801590610bc8575b610b7f57855187815280610b7b818a018b6111b1565b0390f35b610bb1610a16939289928851978897630f0aa61960e11b8952880152602487015260a0604487015260a48601906111b1565b9160648501526003198483030160848501526111b1565b50600583014311610b65565b88928288928c94610bfb8f88519889976314ba554d60e01b895288015260448701906111b1565b8581036003190160248701528181529386850137828201850152601f01601f191601030190fd5b508a518a8c0120610c34368486610ffd565b8b81519101201415610b25565b8b80fd5b8680fd5b5034610141578160031936011261014157602435906001600160401b0382116101415750610b7b92610c81610c889236908301611034565b9035611a17565b90519182916020835260208301906111b1565b50918260031936011261031c578151623ca35d60e31b8152839060208184817f00000000000000000000000000000000000000000000000000000000000000006001600160a01b03165afa908115610d6757829182918291610d49575b50478651915af1610d076115fd565b5015610d11575051f35b6020606492519162461bcd60e51b8352820152601360248201527211551217d514905394d1915497d19052531151606a1b6044820152fd5b610d61915060203d8111610307576102f98183610fc1565b38610cf8565b84513d84823e3d90fd5b5034610141576020366003190112610141578235815481101561036457610d9790611052565b939093610dab57610b7b83610c88866110d6565b634e487b7160e01b8252819052602490fd5b509034610364578160031936011261036457602090517f00000000000000000000000000000000000000000000000000000000000000008152f35b509034610364578160031936011261036457602090517f00000000000000000000000000000000000000000000000000000000000000008152f35b5034610141576020366003190112610141578235906001600160401b0382116101415750610e69602093610e6e92369101611034565b611654565b90519015158152f35b50913461031c578260031936011261031c578151623ca35d60e31b8152906001600160a01b03906020908390817f000000000000000000000000000000000000000000000000000000000000000085165afa801561083b57610ee2928591610442575016331461126c565b60015460ff80821615169060ff19161760015551f35b509034610364578160031936011261036457517f00000000000000000000000000000000000000000000000000000000000000006001600160a01b03168152602090f35b9050833461031c57602036600319011261031c573563ffffffff60e01b811680910361031c5760209250639061b92360e01b8114908115610f7f575b5015158152f35b6301ffc9a760e01b14905083610f78565b606081019081106001600160401b03821117610fab57604052565b634e487b7160e01b600052604160045260246000fd5b90601f801991011681019081106001600160401b03821117610fab57604052565b6001600160401b038111610fab57601f01601f191660200190565b92919261100982610fe2565b916110176040519384610fc1565b829481845281830111610020578281602093846000960137010152565b9080601f830112156100205781602061104f93359101610ffd565b90565b906000918254811015611088578280527f290decd9548b62a8d60345a988386fc84ba6bc95484008f6362f93160ef3e563019190565b634e487b7160e01b83526032600452602483fd5b90600182811c921680156110cc575b60208310146110b657565b634e487b7160e01b600052602260045260246000fd5b91607f16916110ab565b90604051918260008254926110ea8461109c565b9081845260019485811690816000146111595750600114611116575b505061111492500383610fc1565b565b9093915060005260209081600020936000915b81831061114157505061111493508201013880611106565b85548884018501529485019487945091830191611129565b91505061111494506020925060ff191682840152151560051b8201013880611106565b918091926000905b82821061119c575011611195575050565b6000910152565b91508060209183015181860152018291611184565b906020916111ca8151809281855285808601910161117c565b601f01601f1916010190565b9181601f84011215610020578235916001600160401b038311610020576020838186019501011161002057565b6040600319820112610020576001600160401b0391600435838111610020578261122f916004016111d6565b9390939260243591821161002057611249916004016111d6565b9091565b9081602091031261002057516001600160a01b03811681036100205790565b1561127357565b60405162461bcd60e51b815260206004820152600860248201526727b7363c902232bb60c11b6044820152606490fd5b156112aa57565b60405162461bcd60e51b81526020600482015260066024820152651313d0d2d15160d21b6044820152606490fd5b8181106112e3575050565b600081556001016112d8565b9190601f81116112fe57505050565b611114926000526020600020906020601f840160051c8301931061132a575b601f0160051c01906112d8565b909150819061131d565b919392906113fc576001600160401b038111610fab5761135e81611358845461109c565b846112ef565b6000601f8211600114611398578192939460009261138d575b50508160011b916000199060031b1c1916179055565b013590503880611377565b601f198216948382526020918281209281905b8882106113e4575050836001959697106113ca575b505050811b019055565b0135600019600384901b60f8161c191690553880806113c0565b806001849682949587013581550195019201906113ab565b634e487b7160e01b600052600060045260246000fd5b908082146114ea57611424815461109c565b906001600160401b038211610fab57819061144982611443865461109c565b866112ef565b600090601f831160011461147f576000926114745750508160011b916000199060031b1c1916179055565b015490503880611377565b81526020808220858352818320935090601f1985169083905b8282106114d15750509084600195949392106114b857505050811b019055565b015460001960f88460031b161c191690553880806113c0565b8495819295850154815560018091019601940190611498565b5050565b600090815491600160401b8310156115d5576115106001938481018355611052565b9390936115e9578251916001600160401b0383116115d55761153c83611536875461109c565b876112ef565b6020938491601f851160011461157757939450849291908361156c575b50501b916000199060031b1c1916179055565b015192503880611559565b86815285812093958591601f198316915b888383106115bb57505050106115a257505050811b019055565b015160001960f88460031b161c191690553880806113c0565b858701518855909601959485019487935090810190611588565b634e487b7160e01b81526041600452602490fd5b634e487b7160e01b82526004829052602482fd5b3d15611628573d9061160e82610fe2565b9161161c6040519384610fc1565b82523d6000602084013e565b606090565b90815181101561163e570160200190565b634e487b7160e01b600052603260045260246000fd5b805160009182915b8083106116f65750506040516318160ddd60e01b81529190506020826004817f00000000000000000000000000000000000000000000000000000000000000006001600160a01b03165afa9182156116ea576000926116ba57501090565b90916020823d82116116e2575b816116d460209383610fc1565b810103126101415750511190565b3d91506116c7565b6040513d6000823e3d90fd5b91929091906001600160f81b0319600360fc1b81611714878761162d565b511610908115611753575b5061174a57600190600a60ff602f19611738888861162d565b5160f81c01169102019301919061165c565b50505050600090565b603960f81b9150611764868661162d565b5116113861171f565b6001600160401b038111610fab5760051b60200190565b90939293848311610020578411610020578101920390565b805182101561163e5760209160051b010190565b9091600091829360409081519361016085018581106001600160401b038211176119a6578352600a85529495865b610140811061199357505b8181101561163e576001600160f81b0319968482013588161561187857611847611840600184818096019b6118208d838a8d611784565b903582811691858110611864575b5050905060f81c0101809a8689611784565b3691610ffd565b611851828861179c565b5261185c818761179c565b5001956117e9565b83919250850360031b1b161680388061182e565b935050509193506002811160001461196c57600219019081936118a461189e848361179c565b51611654565b1561194157846118d67f0000000000000000000000000000000000000000000000000000000000000000945b8361179c565b51938451602080960120845190868201928352858201528481526118f981610f90565b519020955b6119085750505050565b600019018095611918828461179c565b518581519101208451908682019283528582015284815261193881610f90565b519020956118fe565b846118d67f0000000000000000000000000000000000000000000000000000000000000000946118d0565b507f0000000000000000000000000000000000000000000000000000000000000000925050565b60606020828801810191909152016117de565b634e487b7160e01b87526041600452602487fd5b926068969594929184526bffffffffffffffffffffffff19809260601b16602085015260601b16603483015260488201526119fe825180936020878501910161117c565b01611a12825180936020868501910161117c565b010190565b604051630178b8bf60e01b8152600481018290529091906001600160a01b036020826024817f000000000000000000000000000000000000000000000000000000000000000085165afa9182156116ea57600092611b07575b508116928315611adc57506000809183519060208501905afa91611a926115fd565b9215611a9d57505090565b610a1683611aca6040519485946377c6081360e01b865260048601526060602486015260648501906111b1565b838103600319016044850152906111b1565b9050610a1660405192839263b0c6789f60e01b845260048401526040602484015260448301906111b1565b611b2091925060203d8111610307576102f98183610fc1565b9038611a7056fea26469706673582212200de92073c5814b854e59aedd5778c66250e014008a5c1f41b412432775b03d5e64736f6c634300080f0033",
    "linkReferences": {}
  },
  "methodIdentifiers": {
    "BENSYC()": "e1b6a190",
    "ENS()": "1d2e2cc4",
    "ENSDecode(bytes)": "f7213419",
    "URLS(uint256)": "6af464fe",
    "addGateway(string)": "d63a4801",
    "baseHash()": "441af61a",
    "getResult(bytes32,bytes)": "75fcc911",
    "isNFT(bytes)": "3f8770c0",
    "primaryDomainHash()": "c78946a3",
    "removeGateway(uint256)": "e5dac703",
    "replaceGateway(uint256,string)": "acc0f7b1",
    "resetGateway()": "d27a1e7d",
    "resolve(bytes,bytes)": "9061b923",
    "resolveWithoutProof(bytes,bytes)": "8e47aeb2",
    "secondaryDomainHash()": "42f0bfd1",
    "supportsInterface(bytes4)": "01ffc9a7",
    "toggleGateway()": "1fe64735",
    "withdrawEther()": "7362377b",
    "withdrawToken(address,uint256)": "9e281a98"
  },
  "id": 10
}