{
  "abi": [
    {
      "inputs": [
        {
          "internalType": "bytes",
          "name": "expected",
          "type": "bytes"
        },
        {
          "internalType": "bytes",
          "name": "actual",
          "type": "bytes"
        }
      ],
      "name": "InvalidResult",
      "type": "error"
    },
    {
      "inputs": [
        {
          "internalType": "address",
          "name": "sender",
          "type": "address"
        },
        {
          "internalType": "string[]",
          "name": "urls",
          "type": "string[]"
        },
        {
          "internalType": "bytes",
          "name": "callData",
          "type": "bytes"
        },
        {
          "internalType": "bytes4",
          "name": "callbackFunction",
          "type": "bytes4"
        },
        {
          "internalType": "bytes",
          "name": "extraData",
          "type": "bytes"
        }
      ],
      "name": "OffchainLookup",
      "type": "error"
    },
    {
      "inputs": [
        {
          "internalType": "bytes32",
          "name": "expected",
          "type": "bytes32"
        },
        {
          "internalType": "bytes32",
          "name": "check",
          "type": "bytes32"
        },
        {
          "internalType": "bytes",
          "name": "data",
          "type": "bytes"
        },
        {
          "internalType": "uint256",
          "name": "blknum",
          "type": "uint256"
        },
        {
          "internalType": "bytes",
          "name": "result",
          "type": "bytes"
        }
      ],
      "name": "RequestError",
      "type": "error"
    },
    {
      "inputs": [
        {
          "internalType": "bytes32",
          "name": "node",
          "type": "bytes32"
        },
        {
          "internalType": "bytes",
          "name": "data",
          "type": "bytes"
        }
      ],
      "name": "ResolverNotSet",
      "type": "error"
    },
    {
      "inputs": [
        {
          "internalType": "address",
          "name": "resolver",
          "type": "address"
        },
        {
          "internalType": "bytes",
          "name": "_call",
          "type": "bytes"
        },
        {
          "internalType": "bytes",
          "name": "_error",
          "type": "bytes"
        }
      ],
      "name": "StaticCallFailed",
      "type": "error"
    },
    {
      "stateMutability": "payable",
      "type": "fallback"
    },
    {
      "inputs": [],
      "name": "BENSYC",
      "outputs": [
        {
          "internalType": "contract iBENSYC",
          "name": "",
          "type": "address"
        }
      ],
      "stateMutability": "view",
      "type": "function"
    },
    {
      "inputs": [],
      "name": "ENS",
      "outputs": [
        {
          "internalType": "contract iENS",
          "name": "",
          "type": "address"
        }
      ],
      "stateMutability": "view",
      "type": "function"
    },
    {
      "inputs": [
        {
          "internalType": "bytes",
          "name": "name",
          "type": "bytes"
        }
      ],
      "name": "ENSDecode",
      "outputs": [
        {
          "internalType": "bytes32",
          "name": "_namehash",
          "type": "bytes32"
        }
      ],
      "stateMutability": "view",
      "type": "function"
    },
    {
      "inputs": [
        {
          "internalType": "uint256",
          "name": "",
          "type": "uint256"
        }
      ],
      "name": "URLS",
      "outputs": [
        {
          "internalType": "string",
          "name": "",
          "type": "string"
        }
      ],
      "stateMutability": "view",
      "type": "function"
    },
    {
      "inputs": [
        {
          "internalType": "string",
          "name": "_gateway",
          "type": "string"
        }
      ],
      "name": "addGateway",
      "outputs": [],
      "stateMutability": "nonpayable",
      "type": "function"
    },
    {
      "inputs": [],
      "name": "baseHash",
      "outputs": [
        {
          "internalType": "bytes32",
          "name": "",
          "type": "bytes32"
        }
      ],
      "stateMutability": "view",
      "type": "function"
    },
    {
      "inputs": [
        {
          "internalType": "bytes32",
          "name": "_namehash",
          "type": "bytes32"
        },
        {
          "internalType": "bytes",
          "name": "_calldata",
          "type": "bytes"
        }
      ],
      "name": "getResult",
      "outputs": [
        {
          "internalType": "bytes",
          "name": "",
          "type": "bytes"
        }
      ],
      "stateMutability": "view",
      "type": "function"
    },
    {
      "inputs": [],
      "name": "primaryDomainHash",
      "outputs": [
        {
          "internalType": "bytes32",
          "name": "",
          "type": "bytes32"
        }
      ],
      "stateMutability": "view",
      "type": "function"
    },
    {
      "inputs": [
        {
          "internalType": "uint256",
          "name": "_index",
          "type": "uint256"
        }
      ],
      "name": "removeGateway",
      "outputs": [],
      "stateMutability": "nonpayable",
      "type": "function"
    },
    {
      "inputs": [
        {
          "internalType": "uint256",
          "name": "_index",
          "type": "uint256"
        },
        {
          "internalType": "string",
          "name": "_gateway",
          "type": "string"
        }
      ],
      "name": "replaceGateway",
      "outputs": [],
      "stateMutability": "nonpayable",
      "type": "function"
    },
    {
      "inputs": [],
      "name": "resetGateway",
      "outputs": [],
      "stateMutability": "nonpayable",
      "type": "function"
    },
    {
      "inputs": [
        {
          "internalType": "bytes",
          "name": "name",
          "type": "bytes"
        },
        {
          "internalType": "bytes",
          "name": "data",
          "type": "bytes"
        }
      ],
      "name": "resolve",
      "outputs": [
        {
          "internalType": "bytes",
          "name": "",
          "type": "bytes"
        }
      ],
      "stateMutability": "view",
      "type": "function"
    },
    {
      "inputs": [
        {
          "internalType": "bytes",
          "name": "response",
          "type": "bytes"
        },
        {
          "internalType": "bytes",
          "name": "extraData",
          "type": "bytes"
        }
      ],
      "name": "resolveWithoutProof",
      "outputs": [
        {
          "internalType": "bytes",
          "name": "_result",
          "type": "bytes"
        }
      ],
      "stateMutability": "view",
      "type": "function"
    },
    {
      "inputs": [],
      "name": "secondaryDomainHash",
      "outputs": [
        {
          "internalType": "bytes32",
          "name": "",
          "type": "bytes32"
        }
      ],
      "stateMutability": "view",
      "type": "function"
    },
    {
      "inputs": [
        {
          "internalType": "bytes4",
          "name": "sig",
          "type": "bytes4"
        }
      ],
      "name": "supportsInterface",
      "outputs": [
        {
          "internalType": "bool",
          "name": "",
          "type": "bool"
        }
      ],
      "stateMutability": "pure",
      "type": "function"
    },
    {
      "inputs": [],
      "name": "toggleGateway",
      "outputs": [],
      "stateMutability": "nonpayable",
      "type": "function"
    },
    {
      "inputs": [],
      "name": "withdrawEther",
      "outputs": [],
      "stateMutability": "payable",
      "type": "function"
    },
    {
      "inputs": [
        {
          "internalType": "address",
          "name": "token",
          "type": "address"
        },
        {
          "internalType": "uint256",
          "name": "bal",
          "type": "uint256"
        }
      ],
      "name": "withdrawToken",
      "outputs": [],
      "stateMutability": "payable",
      "type": "function"
    },
    {
      "stateMutability": "payable",
      "type": "receive"
    }
  ],
  "bytecode": {
    "object": "0x61012060409080825234620002ea5773d3e58bf93a1ad3946bfd2d298b964d4ece1a9e7e6080526e0c2e074ec69a0dfb2997ba6c7d2e1e60a0526020810190600082527f4f5b812789fc606be1b3b16908db13fc7a9adf7ca72641f84d75b47069d3d7f0838201528281526200007581620002ef565b5190208060c0528151602081019182527f45f018cb234434a0198389c8a483d87ace97ad7b298925083904c99a8f46c01d83820152828152620000b881620002ef565b51902060e05260c0518151602081019182527f7a46b638f71fee598932cc3ef366f2f3dcdae81da0064fba529d5ae43b3ac9c583820152828152620000fd81620002ef565b51902061010090815281519091906001600160401b0390608081019082821181831017620002d457620001a7918452605481527f68747470733a2f2f697066732e696f2f697066732f516d63504566595348633360208201527f664e6b726a446e4d62356838346e5973584a376f6b4152473950465779596b6b848201527f7668322f636369702e6a736f6e3f7b646174617d00000000000000000000000060608201526200030b565b815160a0810191821181831017620002d45762000247918352606381527f68747470733a2f2f626166796265696771767577637674746265697a3634656460208201527f376332376b7a367a726b77737470366775626268666b6a6e786e766662626e76838201527f677a752e697066732e647765622e6c696e6b2f636369702e6a736f6e3f7b646160608201526274617d60e81b60808201526200030b565b51611a899182620004bb833960805182818161016a0152818161032a015281816103ab01528181610489015281816106be0152818161079401528181610cb20152610e58015260a051828181610ebf0152818161178e015261195e015260c051828181610dcb015261182a015260e05182610e0601525181818161064a01528181611734015261188f0152f35b634e487b7160e01b600052604160045260246000fd5b600080fd5b606081019081106001600160401b03821117620002d457604052565b60009081549068010000000000000000821015620004a65760018083018085558310156200049257838052602080852083519401949093926001600160401b0384116200047e5785548381811c9116801562000473575b868210146200045f57601f811162000414575b508491601f8511600114620003b1579394508492919083620003a5575b50501b916000199060031b1c1916179055565b01519250388062000392565b86815285812093958591601f198316915b88838310620003f95750505010620003df575b505050811b019055565b015160001960f88460031b161c19169055388080620003d5565b858701518855909601959485019487935090810190620003c2565b868352858320601f860160051c81019187871062000454575b601f0160051c019084905b8281106200044857505062000375565b84815501849062000438565b90915081906200042d565b634e487b7160e01b83526022600452602483fd5b90607f169062000362565b634e487b7160e01b82526041600452602482fd5b634e487b7160e01b84526032600452602484fd5b634e487b7160e01b83526041600452602483fdfe6080604081815260049182361015610025575b505050361561002057600080fd5b600080fd5b600090813560e01c90816301ffc9a714610eee575080631d2e2cc414610eaa5780631fe6473514610e2957806342f0bfd114610dee578063441af61a14610db35780636af464fe14610d675780637362377b14610c9157806375fcc91114610c3f5780638e47aeb214610ab45780639061b9231461086c5780639e281a981461075b578063acc0f7b11461066d578063c78946a314610632578063d27a1e7d14610459578063d63a48011461035d578063e1b6a19014610315578063e5dac703146101395763f7213419036100125734610136576020366003190112610136578235906001600160401b038211610136575061012960209361012f92369101611188565b90611638565b9051908152f35b80fd5b509134610311576020908160031936011261030d578251623ca35d60e31b81528135906001600160a01b03848285817f000000000000000000000000000000000000000000000000000000000000000085165afa8015610303576101a79288916102d6575b5016331461121e565b6101b660ff6001541615611255565b600019908186540180156102a357808203610269575b5050845480156102565701916101e183610f42565b92909261024457509084916101f68254610f8c565b9081610204575b5050505551f35b81601f85931160011461021f57505050555b823880806101fd565b83835281832061023a91601f0160051c81019060010161128a565b8120915555610216565b634e487b7160e01b8652859052602485fd5b634e487b7160e01b865260318352602486fd5b61027561027c91610f42565b5091610f42565b610291579061028a916113c4565b38806101cc565b634e487b7160e01b8752868452602487fd5b855162461bcd60e51b8152808501869052600d60248201526c424c414e4b5f4741544557415960981b6044820152606490fd5b6102f69150863d88116102fc575b6102ee8183610ff7565b8101906111ff565b3861019e565b503d6102e4565b86513d89823e3d90fd5b8380fd5b8280fd5b509034610359578160031936011261035957517f00000000000000000000000000000000000000000000000000000000000000006001600160a01b03168152602090f35b5080fd5b5090346103595760203660031901126103595782356001600160401b0381116103115761038d9036908501611188565b8251623ca35d60e31b81529091906001600160a01b039060208188817f000000000000000000000000000000000000000000000000000000000000000086165afa90811561044f57906103ea92918791610437575016331461121e565b6103f960ff6001541615611255565b8354600160401b811015610424579061041b8260016104219594018755610f42565b906112e6565b51f35b634e487b7160e01b855260418652602485fd5b6102f6915060203d81116102fc576102ee8183610ff7565b85513d88823e3d90fd5b5091346103115782600319360112610311578151623ca35d60e31b81526020916001600160a01b039083908390817f000000000000000000000000000000000000000000000000000000000000000085165afa8015610628576104c5928691610611575016331461121e565b6001906104d660ff83541615611255565b835484805580610580575b506105739061052b84516104f481610fc6565b602181527f646174613a746578742f706c61696e2c7b2264617461223a227b646174617d2283820152607d60f81b868201526114a0565b7f646174613a6170706c69636174696f6e2f6a736f6e2c7b2264617461223a227b84519161055883610fc6565b6027835282015266646174617d227d60c81b848201526114a0565b805460ff19168117905551f35b848052827f290decd9548b62a8d60345a988386fc84ba6bc95484008f6362f93160ef3e563918201915b8281106105b85750506104e1565b6105c28154610f8c565b806105d1575b500183906105aa565b601f90838282116001146105ec575050508681555b386105c8565b61060492848b52878b20920160051c8201910161128a565b86848120818355556105e6565b6102f69150843d86116102fc576102ee8183610ff7565b84513d87823e3d90fd5b509034610359578160031936011261035957602090517f00000000000000000000000000000000000000000000000000000000000000008152f35b5090346103595780600319360112610359578235926024356001600160401b03811161030d576106a09036908301611188565b8351623ca35d60e31b81529092906001600160a01b039060208184817f000000000000000000000000000000000000000000000000000000000000000086165afa90811561030357906106fd92918891610437575016331461121e565b61070c60ff6001541615611255565b8454861015610724575061041b610421939495610f42565b606490602085519162461bcd60e51b835282015260116024820152700929cac82989288be9288be988a9c8ea89607b1b6044820152fd5b509181600319360112610311576001600160a01b039080358281169081900361086857835190623ca35d60e31b825260209283838281887f0000000000000000000000000000000000000000000000000000000000000000165afa9087821561085d578594819361083d575b5060649293885197889586946323b872dd60e01b8652309086015216602484015260243560448401525af180156108305761080157505051f35b81813d8311610829575b6108158183610ff7565b810103126103115751801515036103595751f35b503d61080b565b50505051903d90823e3d90fd5b6064935061085790863d88116102fc576102ee8183610ff7565b926107c7565b8751903d90823e3d90fd5b8480fd5b508234610359579061088c91610881366111b5565b939295919095611638565b91602494858211600014610a8b57818311610868578186116108685760206108dd918851938186869385850137878a8401528960231983019101604484013781018783820152038084520182610ff7565b9492905b6108eb8684611937565b809483546108f8816115df565b9861090583519a8b610ff7565b818a52601f199182610916826115df565b01875b8c828210610a7857505050865b818110610a3b57505082916109989161098c8960a096516109668161095a60209b878d84019633306000194301408a6118da565b03868101835282610ff7565b5190209185519a8b938985015243878501526060840152608080840152868301906110f3565b03908101885287610ff7565b5196630556f18360e41b885260a48801933090890152870152865180925260c486018160c48460051b890101980193905b838210610a0f578780610a0b89896109ee8e60031993848783030160448801526110f3565b634723d75960e11b606486015284810390920160848501526110f3565b0390fd5b90919293978380610a2c60019360c3198c82030186528c516110f3565b9a0192019201909392916109c9565b60019192969795508b610a6082610a5a610a5482610f42565b50611018565b9261160e565b52610a6b818d61160e565b5001908894969591610926565b606060209183018201528b975001610919565b90821161030d578186519160208301378285820152848152610aac81610fc6565b9492906108e1565b5091903461031157610ac5366111b5565b81959293950192608082850312610c3b578135936020968784013593878101359260608201356001600160401b038111610c3757610b03920161116a565b92610b0e8484611937565b9960ff6001541680610c18575b610bca575050508551610b4d81610b3f8b868c84019633306000198c01408a6118da565b03601f198101835282610ff7565b519020848114801590610bbe575b610b7557855187815280610b71818a018b6110f3565b0390f35b610ba7610a0b939289928851978897630f0aa61960e11b8952880152602487015260a0604487015260a48601906110f3565b9160648501526003198483030160848501526110f3565b50600583014311610b5b565b88928288928c94610bf18f88519889976314ba554d60e01b895288015260448701906110f3565b8581036003190160248701528181529386850137828201850152601f01601f191601030190fd5b508a518a8c0120610c2a368486611133565b8b81519101201415610b1b565b8b80fd5b8680fd5b5034610136578160031936011261013657602435906001600160401b0382116101365750610b7192610c77610c7e923690830161116a565b9035611937565b90519182916020835260208301906110f3565b509182600319360112610311578151623ca35d60e31b8152839060208184817f00000000000000000000000000000000000000000000000000000000000000006001600160a01b03165afa908115610d5d57829182918291610d3f575b50478651915af1610cfd6115af565b5015610d07575051f35b6020606492519162461bcd60e51b8352820152601360248201527211551217d514905394d1915497d19052531151606a1b6044820152fd5b610d57915060203d81116102fc576102ee8183610ff7565b38610cee565b84513d84823e3d90fd5b5034610136576020366003190112610136578235815481101561035957610d8d90610f42565b939093610da157610b7183610c7e86611018565b634e487b7160e01b8252819052602490fd5b509034610359578160031936011261035957602090517f00000000000000000000000000000000000000000000000000000000000000008152f35b509034610359578160031936011261035957602090517f00000000000000000000000000000000000000000000000000000000000000008152f35b5091346103115782600319360112610311578151623ca35d60e31b8152906001600160a01b03906020908390817f000000000000000000000000000000000000000000000000000000000000000085165afa801561083057610e94928591610437575016331461121e565b60015460ff80821615169060ff19161760015551f35b509034610359578160031936011261035957517f00000000000000000000000000000000000000000000000000000000000000006001600160a01b03168152602090f35b90508334610311576020366003190112610311573563ffffffff60e01b81168091036103115760209250639061b92360e01b8114908115610f31575b5015158152f35b6301ffc9a760e01b14905083610f2a565b906000918254811015610f78578280527f290decd9548b62a8d60345a988386fc84ba6bc95484008f6362f93160ef3e563019190565b634e487b7160e01b83526032600452602483fd5b90600182811c92168015610fbc575b6020831014610fa657565b634e487b7160e01b600052602260045260246000fd5b91607f1691610f9b565b606081019081106001600160401b03821117610fe157604052565b634e487b7160e01b600052604160045260246000fd5b90601f801991011681019081106001600160401b03821117610fe157604052565b906040519182600082549261102c84610f8c565b90818452600194858116908160001461109b5750600114611058575b505061105692500383610ff7565b565b9093915060005260209081600020936000915b81831061108357505061105693508201013880611048565b8554888401850152948501948794509183019161106b565b91505061105694506020925060ff191682840152151560051b8201013880611048565b918091926000905b8282106110de5750116110d7575050565b6000910152565b915080602091830151818601520182916110c6565b9060209161110c815180928185528580860191016110be565b601f01601f1916010190565b6001600160401b038111610fe157601f01601f191660200190565b92919261113f82611118565b9161114d6040519384610ff7565b829481845281830111610020578281602093846000960137010152565b9080601f830112156100205781602061118593359101611133565b90565b9181601f84011215610020578235916001600160401b038311610020576020838186019501011161002057565b6040600319820112610020576001600160401b039160043583811161002057826111e191600401611188565b93909392602435918211610020576111fb91600401611188565b9091565b9081602091031261002057516001600160a01b03811681036100205790565b1561122557565b60405162461bcd60e51b815260206004820152600860248201526727b7363c902232bb60c11b6044820152606490fd5b1561125c57565b60405162461bcd60e51b81526020600482015260066024820152651313d0d2d15160d21b6044820152606490fd5b818110611295575050565b6000815560010161128a565b9190601f81116112b057505050565b611056926000526020600020906020601f840160051c830193106112dc575b601f0160051c019061128a565b90915081906112cf565b919392906113ae576001600160401b038111610fe1576113108161130a8454610f8c565b846112a1565b6000601f821160011461134a578192939460009261133f575b50508160011b916000199060031b1c1916179055565b013590503880611329565b601f198216948382526020918281209281905b8882106113965750508360019596971061137c575b505050811b019055565b0135600019600384901b60f8161c19169055388080611372565b8060018496829495870135815501950192019061135d565b634e487b7160e01b600052600060045260246000fd5b9080821461149c576113d68154610f8c565b906001600160401b038211610fe15781906113fb826113f58654610f8c565b866112a1565b600090601f8311600114611431576000926114265750508160011b916000199060031b1c1916179055565b015490503880611329565b81526020808220858352818320935090601f1985169083905b82821061148357505090846001959493921061146a57505050811b019055565b015460001960f88460031b161c19169055388080611372565b849581929585015481556001809101960194019061144a565b5050565b600090815491600160401b831015611587576114c26001938481018355610f42565b93909361159b578251916001600160401b038311611587576114ee836114e88754610f8c565b876112a1565b6020938491601f851160011461152957939450849291908361151e575b50501b916000199060031b1c1916179055565b01519250388061150b565b86815285812093958591601f198316915b8883831061156d575050501061155457505050811b019055565b015160001960f88460031b161c19169055388080611372565b85870151885590960195948501948793509081019061153a565b634e487b7160e01b81526041600452602490fd5b634e487b7160e01b82526004829052602482fd5b3d156115da573d906115c082611118565b916115ce6040519384610ff7565b82523d6000602084013e565b606090565b6001600160401b038111610fe15760051b60200190565b90939293848311610020578411610020578101920390565b80518210156116225760209160051b010190565b634e487b7160e01b600052603260045260246000fd5b90600091829360409283519361016085018581106001600160401b038211176118c6578152600a85529495865b61014081106118b357505b81811015611622576001600160f81b031996848201358816156116ff576116ce6116c7600184818096019b6116a78d838a8d6115f6565b9035828116918581106116eb575b5050905060f81c0101809a86896115f6565b3691611133565b6116d8828861160e565b526116e3818761160e565b500195611670565b83919250850360031b1b16168038806116b5565b935050509293506002811160001461188c5760021901928391611722838261160e565b519283516020809501208351858101917f000000000000000000000000000000000000000000000000000000000000000083528582015284815261176581610fc6565b5190208351630178b8bf60e01b8152600481018290529096906001600160a01b039086816024817f000000000000000000000000000000000000000000000000000000000000000086165afa90811561188157600091611864575b50161561180e575b50805b6117d55750505050565b6000190180956117e5828461160e565b518581519101208451908682019283528582015284815261180581610fc6565b519020956117cb565b81965061181b908361160e565b518481519101208351858101917f000000000000000000000000000000000000000000000000000000000000000083528582015284815261185b81610fc6565b519020956117c8565b61187b9150873d89116102fc576102ee8183610ff7565b386117c0565b86513d6000823e3d90fd5b507f0000000000000000000000000000000000000000000000000000000000000000925050565b6060602082880181019190915201611665565b634e487b7160e01b87526041600452602487fd5b926068969594929184526bffffffffffffffffffffffff19809260601b16602085015260601b166034830152604882015261191e82518093602087850191016110be565b0161193282518093602086850191016110be565b010190565b604051630178b8bf60e01b8152600481018290529091906001600160a01b036020826024817f000000000000000000000000000000000000000000000000000000000000000085165afa918215611a4757600092611a27575b5081169283156119fc57506000809183519060208501905afa916119b26115af565b92156119bd57505090565b610a0b836119ea6040519485946377c6081360e01b865260048601526060602486015260648501906110f3565b838103600319016044850152906110f3565b9050610a0b60405192839263b0c6789f60e01b845260048401526040602484015260448301906110f3565b611a4091925060203d81116102fc576102ee8183610ff7565b9038611990565b6040513d6000823e3d90fdfea26469706673582212200cbd57b02af29e4727f8a0294bc2ffb537df2306177a39c2f15c0fe2c8c135d464736f6c634300080f0033",
    "linkReferences": {}
  },
  "methodIdentifiers": {
    "BENSYC()": "e1b6a190",
    "ENS()": "1d2e2cc4",
    "ENSDecode(bytes)": "f7213419",
    "URLS(uint256)": "6af464fe",
    "addGateway(string)": "d63a4801",
    "baseHash()": "441af61a",
    "getResult(bytes32,bytes)": "75fcc911",
    "primaryDomainHash()": "c78946a3",
    "removeGateway(uint256)": "e5dac703",
    "replaceGateway(uint256,string)": "acc0f7b1",
    "resetGateway()": "d27a1e7d",
    "resolve(bytes,bytes)": "9061b923",
    "resolveWithoutProof(bytes,bytes)": "8e47aeb2",
    "secondaryDomainHash()": "42f0bfd1",
    "supportsInterface(bytes4)": "01ffc9a7",
    "toggleGateway()": "1fe64735",
    "withdrawEther()": "7362377b",
    "withdrawToken(address,uint256)": "9e281a98"
  },
  "id": 10
}