{
  "abi": [
    {
      "inputs": [
        {
          "internalType": "bytes",
          "name": "expected",
          "type": "bytes"
        },
        {
          "internalType": "bytes",
          "name": "actual",
          "type": "bytes"
        }
      ],
      "name": "InvalidResult",
      "type": "error"
    },
    {
      "inputs": [
        {
          "internalType": "address",
          "name": "sender",
          "type": "address"
        },
        {
          "internalType": "string[]",
          "name": "urls",
          "type": "string[]"
        },
        {
          "internalType": "bytes",
          "name": "callData",
          "type": "bytes"
        },
        {
          "internalType": "bytes4",
          "name": "callbackFunction",
          "type": "bytes4"
        },
        {
          "internalType": "bytes",
          "name": "extraData",
          "type": "bytes"
        }
      ],
      "name": "OffchainLookup",
      "type": "error"
    },
    {
      "inputs": [
        {
          "internalType": "bytes32",
          "name": "expected",
          "type": "bytes32"
        },
        {
          "internalType": "bytes32",
          "name": "check",
          "type": "bytes32"
        },
        {
          "internalType": "bytes",
          "name": "data",
          "type": "bytes"
        },
        {
          "internalType": "uint256",
          "name": "blknum",
          "type": "uint256"
        },
        {
          "internalType": "bytes",
          "name": "result",
          "type": "bytes"
        }
      ],
      "name": "RequestError",
      "type": "error"
    },
    {
      "inputs": [
        {
          "internalType": "bytes32",
          "name": "node",
          "type": "bytes32"
        },
        {
          "internalType": "bytes",
          "name": "data",
          "type": "bytes"
        }
      ],
      "name": "ResolverNotSet",
      "type": "error"
    },
    {
      "inputs": [
        {
          "internalType": "address",
          "name": "resolver",
          "type": "address"
        },
        {
          "internalType": "bytes",
          "name": "_call",
          "type": "bytes"
        },
        {
          "internalType": "bytes",
          "name": "_error",
          "type": "bytes"
        }
      ],
      "name": "StaticCallFailed",
      "type": "error"
    },
    {
      "stateMutability": "payable",
      "type": "fallback"
    },
    {
      "inputs": [],
      "name": "BENSYC",
      "outputs": [
        {
          "internalType": "contract iBENSYC",
          "name": "",
          "type": "address"
        }
      ],
      "stateMutability": "view",
      "type": "function"
    },
    {
      "inputs": [],
      "name": "ENS",
      "outputs": [
        {
          "internalType": "contract iENS",
          "name": "",
          "type": "address"
        }
      ],
      "stateMutability": "view",
      "type": "function"
    },
    {
      "inputs": [
        {
          "internalType": "bytes",
          "name": "name",
          "type": "bytes"
        }
      ],
      "name": "ENSDecode",
      "outputs": [
        {
          "internalType": "bytes32",
          "name": "_namehash",
          "type": "bytes32"
        }
      ],
      "stateMutability": "view",
      "type": "function"
    },
    {
      "inputs": [
        {
          "internalType": "uint256",
          "name": "",
          "type": "uint256"
        }
      ],
      "name": "URLS",
      "outputs": [
        {
          "internalType": "string",
          "name": "",
          "type": "string"
        }
      ],
      "stateMutability": "view",
      "type": "function"
    },
    {
      "inputs": [
        {
          "internalType": "string",
          "name": "_gateway",
          "type": "string"
        }
      ],
      "name": "addGateway",
      "outputs": [],
      "stateMutability": "nonpayable",
      "type": "function"
    },
    {
      "inputs": [],
      "name": "baseHash",
      "outputs": [
        {
          "internalType": "bytes32",
          "name": "",
          "type": "bytes32"
        }
      ],
      "stateMutability": "view",
      "type": "function"
    },
    {
      "inputs": [
        {
          "internalType": "bytes32",
          "name": "_namehash",
          "type": "bytes32"
        },
        {
          "internalType": "bytes",
          "name": "_calldata",
          "type": "bytes"
        }
      ],
      "name": "getResult",
      "outputs": [
        {
          "internalType": "bytes",
          "name": "",
          "type": "bytes"
        }
      ],
      "stateMutability": "view",
      "type": "function"
    },
    {
      "inputs": [
        {
          "internalType": "bytes",
          "name": "_label",
          "type": "bytes"
        }
      ],
      "name": "isNFT",
      "outputs": [
        {
          "internalType": "bool",
          "name": "",
          "type": "bool"
        }
      ],
      "stateMutability": "view",
      "type": "function"
    },
    {
      "inputs": [],
      "name": "primaryDomainHash",
      "outputs": [
        {
          "internalType": "bytes32",
          "name": "",
          "type": "bytes32"
        }
      ],
      "stateMutability": "view",
      "type": "function"
    },
    {
      "inputs": [
        {
          "internalType": "uint256",
          "name": "_index",
          "type": "uint256"
        }
      ],
      "name": "removeGateway",
      "outputs": [],
      "stateMutability": "nonpayable",
      "type": "function"
    },
    {
      "inputs": [
        {
          "internalType": "uint256",
          "name": "_index",
          "type": "uint256"
        },
        {
          "internalType": "string",
          "name": "_gateway",
          "type": "string"
        }
      ],
      "name": "replaceGateway",
      "outputs": [],
      "stateMutability": "nonpayable",
      "type": "function"
    },
    {
      "inputs": [],
      "name": "resetGateway",
      "outputs": [],
      "stateMutability": "nonpayable",
      "type": "function"
    },
    {
      "inputs": [
        {
          "internalType": "bytes",
          "name": "name",
          "type": "bytes"
        },
        {
          "internalType": "bytes",
          "name": "data",
          "type": "bytes"
        }
      ],
      "name": "resolve",
      "outputs": [
        {
          "internalType": "bytes",
          "name": "",
          "type": "bytes"
        }
      ],
      "stateMutability": "view",
      "type": "function"
    },
    {
      "inputs": [
        {
          "internalType": "bytes",
          "name": "response",
          "type": "bytes"
        },
        {
          "internalType": "bytes",
          "name": "extraData",
          "type": "bytes"
        }
      ],
      "name": "resolveWithoutProof",
      "outputs": [
        {
          "internalType": "bytes",
          "name": "_result",
          "type": "bytes"
        }
      ],
      "stateMutability": "view",
      "type": "function"
    },
    {
      "inputs": [],
      "name": "secondaryDomainHash",
      "outputs": [
        {
          "internalType": "bytes32",
          "name": "",
          "type": "bytes32"
        }
      ],
      "stateMutability": "view",
      "type": "function"
    },
    {
      "inputs": [],
      "name": "secondaryLabelHash",
      "outputs": [
        {
          "internalType": "bytes32",
          "name": "",
          "type": "bytes32"
        }
      ],
      "stateMutability": "view",
      "type": "function"
    },
    {
      "inputs": [
        {
          "internalType": "bytes4",
          "name": "sig",
          "type": "bytes4"
        }
      ],
      "name": "supportsInterface",
      "outputs": [
        {
          "internalType": "bool",
          "name": "",
          "type": "bool"
        }
      ],
      "stateMutability": "pure",
      "type": "function"
    },
    {
      "inputs": [],
      "name": "withdrawEther",
      "outputs": [],
      "stateMutability": "payable",
      "type": "function"
    },
    {
      "inputs": [
        {
          "internalType": "address",
          "name": "token",
          "type": "address"
        },
        {
          "internalType": "uint256",
          "name": "bal",
          "type": "uint256"
        }
      ],
      "name": "withdrawToken",
      "outputs": [],
      "stateMutability": "payable",
      "type": "function"
    },
    {
      "stateMutability": "payable",
      "type": "receive"
    }
  ],
  "bytecode": {
    "object": "0x610140604090808252346200025e5773d3e58bf93a1ad3946bfd2d298b964d4ece1a9e7e6080526e0c2e074ec69a0dfb2997ba6c7d2e1e60a0526020810190600082527f4f5b812789fc606be1b3b16908db13fc7a9adf7ca72641f84d75b47069d3d7f083820152828152620000758162000263565b5190208060c0527f45f018cb234434a0198389c8a483d87ace97ad7b298925083904c99a8f46c01d8060e0528251906020820192835283820152828152620000bd8162000263565b5190209061010091825260c0518151602081019182527f7a46b638f71fee598932cc3ef366f2f3dcdae81da0064fba529d5ae43b3ac9c583820152828152620001068162000263565b519020906101209182526200016a8151620001218162000263565b603181527f68747470733a2f2f697066732e696f2f697066732f3c697066735f686173683e6020820152702f636369702e6a736f6e3f7b646174617d60781b8382015262000295565b620001d081516200017b8162000263565b603381527f68747470733a2f2f647765622e6c696e6b2f697066732f3c697066735f68617360208201527f683e2f636369702e6a736f6e3f7b646174617d000000000000000000000000008382015262000295565b5190611a3292836200044584396080518381816101750152818161029801528181610315015281816103d101528181610699015281816107a901528181610cc60152611552015260a051838181610e960152611913015260c051838181610ddf015261181c015260e0518361074d01525182610e1a0152518181816106250152818161178401526118440152f35b600080fd5b606081019081106001600160401b038211176200027f57604052565b634e487b7160e01b600052604160045260246000fd5b60009081549068010000000000000000821015620004305760018083018085558310156200041c57838052602080852083519401949093926001600160401b038411620004085785548381811c91168015620003fd575b86821014620003e957601f81116200039e575b508491601f85116001146200033b5793945084929190836200032f575b50501b916000199060031b1c1916179055565b0151925038806200031c565b86815285812093958591601f198316915b8883831062000383575050501062000369575b505050811b019055565b015160001960f88460031b161c191690553880806200035f565b8587015188559096019594850194879350908101906200034c565b868352858320601f860160051c810191878710620003de575b601f0160051c019084905b828110620003d2575050620002ff565b848155018490620003c2565b9091508190620003b7565b634e487b7160e01b83526022600452602483fd5b90607f1690620002ec565b634e487b7160e01b82526041600452602482fd5b634e487b7160e01b84526032600452602484fd5b634e487b7160e01b83526041600452602483fdfe6080604081815260049182361015610025575b505050361561002057600080fd5b600080fd5b600090813560e01c90816301ffc9a714610ec5575080631d2e2cc414610e815780633f8770c014610e3d57806342f0bfd114610e02578063441af61a14610dc75780636af464fe14610d7b5780637362377b14610ca557806375fcc91114610c535780638e47aeb214610ac95780639061b923146108815780639e281a9814610770578063aab9d2fc14610735578063acc0f7b114610648578063c78946a31461060d578063d27a1e7d146103a2578063d63a4801146102c7578063e1b6a19014610283578063e5dac703146101445763f7213419036100125734610141576020366003190112610141578235906001600160401b038211610141575061013460209361013a9236910161115f565b90611685565b9051908152f35b80fd5b50903461027f57602036600319011261027f578051623ca35d60e31b81528335906001600160a01b039060208187817f000000000000000000000000000000000000000000000000000000000000000086165afa90811561027557906101b592918691610247575b501633146111f5565b8254600019018015610214578082036101d6575b50506101d3611437565b51f35b6101e26101e991610fdb565b5091610fdb565b610202576101f99293945061135b565b819038806101c9565b634e487b7160e01b8452838552602484fd5b825162461bcd60e51b8152602081870152600d60248201526c424c414e4b5f4741544557415960981b6044820152606490fd5b610268915060203d811161026e575b6102608183610f4a565b8101906111d6565b386101ac565b503d610256565b84513d87823e3d90fd5b5080fd5b50903461027f578160031936011261027f57517f00000000000000000000000000000000000000000000000000000000000000006001600160a01b03168152602090f35b50903461027f57602036600319011261027f5782356001600160401b03811161039e576102f7903690850161115f565b8251623ca35d60e31b81529091906001600160a01b039060208188817f000000000000000000000000000000000000000000000000000000000000000086165afa90811561039457906103549291879161024757501633146111f5565b835468010000000000000000811015610381579061037b8260016101d39594018755610fdb565b9061127d565b634e487b7160e01b855260418652602485fd5b85513d88823e3d90fd5b8280fd5b50903461027f578160031936011261027f578051623ca35d60e31b81526020906001600160a01b0390828187817f000000000000000000000000000000000000000000000000000000000000000086165afa9081156102755790610410929186916105f657501633146111f5565b82545b600181116105e5575081519361042885610f19565b602185527f646174613a746578742f706c61696e2c7b2264617461223a227b646174617d2282860152607d60f81b838601528354156105d2578380528451906001600160401b0382116105bf57507f290decd9548b62a8d60345a988386fc84ba6bc95484008f6362f93160ef3e563916104a28354611025565b601f8111610568575b5080601f83116001146104e75750849582939495926104dc575b50508160011b916000199060031b1c191617905551f35b0151905038806104c5565b838652601f198316967f510e4e770828ddbf7f7b00ab00a9f6adaf81c0dc9cc85f1f8249c256942d61d9929187905b8982106105505750508360019596979810610537575b505050811b01905551f35b015160001960f88460031b161c1916905538808061052c565b80600185968294968601518155019501930190610516565b6105af908487527f510e4e770828ddbf7f7b00ab00a9f6adaf81c0dc9cc85f1f8249c256942d61d9601f850160051c8101918486106105b5575b601f0160051c019061122c565b386104ab565b90915081906105a2565b634e487b7160e01b855260419052602484fd5b634e487b7160e01b845260329052602483fd5b6105ed611437565b60001901610413565b6102689150843d861161026e576102608183610f4a565b50903461027f578160031936011261027f57602090517f00000000000000000000000000000000000000000000000000000000000000008152f35b50903461027f578060031936011261027f578235926024356001600160401b0381116107315761067b903690830161115f565b8351623ca35d60e31b81529092906001600160a01b039060208184817f000000000000000000000000000000000000000000000000000000000000000086165afa90811561072757906106d89291889161024757501633146111f5565b84548610156106f0575061037b6101d3939495610fdb565b606490602085519162461bcd60e51b835282015260116024820152700929cac82989288be9288be988a9c8ea89607b1b6044820152fd5b86513d89823e3d90fd5b8380fd5b50903461027f578160031936011261027f57602090517f00000000000000000000000000000000000000000000000000000000000000008152f35b50918160031936011261039e576001600160a01b039080358281169081900361087d57835190623ca35d60e31b825260209283838281887f0000000000000000000000000000000000000000000000000000000000000000165afa908782156108725785948193610852575b5060649293885197889586946323b872dd60e01b8652309086015216602484015260243560448401525af180156108455761081657505051f35b81813d831161083e575b61082a8183610f4a565b8101031261039e57518015150361027f5751f35b503d610820565b50505051903d90823e3d90fd5b6064935061086c90863d881161026e576102608183610f4a565b926107dc565b8751903d90823e3d90fd5b8480fd5b50823461027f57906108a1916108963661118c565b939295919095611685565b91602494858211600014610aa05781831161087d5781861161087d5760206108f2918851938186869385850137878a8401528960231983019101604484013781018783820152038084520182610f4a565b9492905b61090086846118ec565b8094835461090d81611642565b9861091a83519a8b610f4a565b818a52601f19918261092b82611642565b01875b8c828210610a8d57505050865b818110610a5057505082916109ad916109a18960a0965161097b8161096f60209b878d84019633306000194301408a61188f565b03868101835282610f4a565b5190209185519a8b9389850152438785015260608401526080808401528683019061113a565b03908101885287610f4a565b5196630556f18360e41b885260a48801933090890152870152865180925260c486018160c48460051b890101980193905b838210610a24578780610a208989610a038e600319938487830301604488015261113a565b634723d75960e11b6064860152848103909201608485015261113a565b0390fd5b90919293978380610a4160019360c3198c82030186528c5161113a565b9a0192019201909392916109de565b60019192969795508b610a7582610a6f610a6982610fdb565b5061105f565b92611671565b52610a80818d611671565b500190889496959161093b565b606060209183018201528b97500161092e565b908211610731578186519160208301378285820152848152610ac181610f19565b9492906108f6565b5091903461039e57610ada3661118c565b81959293950192608082850312610c4f578135936020968784013593878101359260608201356001600160401b038111610c4b57610b189201610fbd565b92610b2384846118ec565b99600181541480610c2c575b610bde575050508551610b6181610b538b868c84019633306000198c01408a61188f565b03601f198101835282610f4a565b519020848114801590610bd2575b610b8957855187815280610b85818a018b61113a565b0390f35b610bbb610a20939289928851978897630f0aa61960e11b8952880152602487015260a0604487015260a486019061113a565b91606485015260031984830301608485015261113a565b50600583014311610b6f565b88928288928c94610c058f88519889976314ba554d60e01b8952880152604487019061113a565b8581036003190160248701528181529386850137828201850152601f01601f191601030190fd5b508a518a8c0120610c3e368486610f86565b8b81519101201415610b2f565b8b80fd5b8680fd5b5034610141578160031936011261014157602435906001600160401b0382116101415750610b8592610c8b610c929236908301610fbd565b90356118ec565b905191829160208352602083019061113a565b50918260031936011261039e578151623ca35d60e31b8152839060208184817f00000000000000000000000000000000000000000000000000000000000000006001600160a01b03165afa908115610d7157829182918291610d53575b50478651915af1610d116114d2565b5015610d1b575051f35b6020606492519162461bcd60e51b8352820152601360248201527211551217d514905394d1915497d19052531151606a1b6044820152fd5b610d6b915060203d811161026e576102608183610f4a565b38610d02565b84513d84823e3d90fd5b5034610141576020366003190112610141578235815481101561027f57610da190610fdb565b939093610db557610b8583610c928661105f565b634e487b7160e01b8252819052602490fd5b50903461027f578160031936011261027f57602090517f00000000000000000000000000000000000000000000000000000000000000008152f35b50903461027f578160031936011261027f57602090517f00000000000000000000000000000000000000000000000000000000000000008152f35b5034610141576020366003190112610141578235906001600160401b0382116101415750610e73602093610e7892369101610fbd565b611529565b90519015158152f35b50903461027f578160031936011261027f57517f00000000000000000000000000000000000000000000000000000000000000006001600160a01b03168152602090f35b9050833461039e57602036600319011261039e573563ffffffff60e01b811680910361039e5760209250639061b92360e01b8114908115610f08575b5015158152f35b6301ffc9a760e01b14905083610f01565b606081019081106001600160401b03821117610f3457604052565b634e487b7160e01b600052604160045260246000fd5b90601f801991011681019081106001600160401b03821117610f3457604052565b6001600160401b038111610f3457601f01601f191660200190565b929192610f9282610f6b565b91610fa06040519384610f4a565b829481845281830111610020578281602093846000960137010152565b9080601f8301121561002057816020610fd893359101610f86565b90565b906000918254811015611011578280527f290decd9548b62a8d60345a988386fc84ba6bc95484008f6362f93160ef3e563019190565b634e487b7160e01b83526032600452602483fd5b90600182811c92168015611055575b602083101461103f57565b634e487b7160e01b600052602260045260246000fd5b91607f1691611034565b906040519182600082549261107384611025565b9081845260019485811690816000146110e2575060011461109f575b505061109d92500383610f4a565b565b9093915060005260209081600020936000915b8183106110ca57505061109d9350820101388061108f565b855488840185015294850194879450918301916110b2565b91505061109d94506020925060ff191682840152151560051b820101388061108f565b918091926000905b82821061112557501161111e575050565b6000910152565b9150806020918301518186015201829161110d565b9060209161115381518092818552858086019101611105565b601f01601f1916010190565b9181601f84011215610020578235916001600160401b038311610020576020838186019501011161002057565b6040600319820112610020576001600160401b039160043583811161002057826111b89160040161115f565b93909392602435918211610020576111d29160040161115f565b9091565b9081602091031261002057516001600160a01b03811681036100205790565b156111fc57565b60405162461bcd60e51b815260206004820152600860248201526727b7363c902232bb60c11b6044820152606490fd5b818110611237575050565b6000815560010161122c565b9190601f811161125257505050565b61109d926000526020600020906020601f840160051c830193106105b557601f0160051c019061122c565b91939290611345576001600160401b038111610f34576112a7816112a18454611025565b84611243565b6000601f82116001146112e157819293946000926112d6575b50508160011b916000199060031b1c1916179055565b0135905038806112c0565b601f198216948382526020918281209281905b88821061132d57505083600195969710611313575b505050811b019055565b0135600019600384901b60f8161c19169055388080611309565b806001849682949587013581550195019201906112f4565b634e487b7160e01b600052600060045260246000fd5b908082146114335761136d8154611025565b906001600160401b038211610f345781906113928261138c8654611025565b86611243565b600090601f83116001146113c8576000926113bd5750508160011b916000199060031b1c1916179055565b0154905038806112c0565b81526020808220858352818320935090601f1985169083905b82821061141a57505090846001959493921061140157505050811b019055565b015460001960f88460031b161c19169055388080611309565b84958192958501548155600180910196019401906113e1565b5050565b6000805480156114be57600019019061144f82610fdb565b6114aa578061145f839254611025565b8061146b575b50505055565b601f81116001146114815750555b803880611465565b8183526020832061149d91601f0160051c81019060010161122c565b8160208120915555611479565b634e487b7160e01b82526004829052602482fd5b634e487b7160e01b82526031600452602482fd5b3d156114fd573d906114e382610f6b565b916114f16040519384610f4a565b82523d6000602084013e565b606090565b908151811015611513570160200190565b634e487b7160e01b600052603260045260246000fd5b805160009182915b8083106115cb5750506040516318160ddd60e01b81529190506020826004817f00000000000000000000000000000000000000000000000000000000000000006001600160a01b03165afa9182156115bf5760009261158f57501090565b90916020823d82116115b7575b816115a960209383610f4a565b810103126101415750511190565b3d915061159c565b6040513d6000823e3d90fd5b91929091906001600160f81b0319600360fc1b816115e98787611502565b511610908115611628575b5061161f57600190600a60ff602f1961160d8888611502565b5160f81c011691020193019190611531565b50505050600090565b603960f81b91506116398686611502565b511611386115f4565b6001600160401b038111610f345760051b60200190565b90939293848311610020578411610020578101920390565b80518210156115135760209160051b010190565b9091600091829360409081519361016085018581106001600160401b0382111761187b578352600a85529495865b610140811061186857505b81811015611513576001600160f81b0319968482013588161561174d5761171c611715600184818096019b6116f58d838a8d611659565b903582811691858110611739575b5050905060f81c0101809a8689611659565b3691610f86565b6117268288611671565b526117318187611671565b5001956116be565b83919250850360031b1b1616803880611703565b935050509193506002811160001461184157600219019081936117796117738483611671565b51611529565b1561181657846117ab7f0000000000000000000000000000000000000000000000000000000000000000945b83611671565b51938451602080960120845190868201928352858201528481526117ce81610f19565b519020955b6117dd5750505050565b6000190180956117ed8284611671565b518581519101208451908682019283528582015284815261180d81610f19565b519020956117d3565b846117ab7f0000000000000000000000000000000000000000000000000000000000000000946117a5565b507f0000000000000000000000000000000000000000000000000000000000000000925050565b60606020828801810191909152016116b3565b634e487b7160e01b87526041600452602487fd5b926068969594929184526bffffffffffffffffffffffff19809260601b16602085015260601b16603483015260488201526118d38251809360208785019101611105565b016118e78251809360208685019101611105565b010190565b604051630178b8bf60e01b8152600481018290529091906001600160a01b036020826024817f000000000000000000000000000000000000000000000000000000000000000085165afa9182156115bf576000926119dc575b5081169283156119b157506000809183519060208501905afa916119676114d2565b921561197257505090565b610a208361199f6040519485946377c6081360e01b8652600486015260606024860152606485019061113a565b8381036003190160448501529061113a565b9050610a2060405192839263b0c6789f60e01b8452600484015260406024840152604483019061113a565b6119f591925060203d811161026e576102608183610f4a565b903861194556fea264697066735822122075082ab45719a0959e8ab51f177287c1c4b7345f69caf03185f315af58f9b0fc64736f6c634300080f0033",
    "linkReferences": {}
  },
  "methodIdentifiers": {
    "BENSYC()": "e1b6a190",
    "ENS()": "1d2e2cc4",
    "ENSDecode(bytes)": "f7213419",
    "URLS(uint256)": "6af464fe",
    "addGateway(string)": "d63a4801",
    "baseHash()": "441af61a",
    "getResult(bytes32,bytes)": "75fcc911",
    "isNFT(bytes)": "3f8770c0",
    "primaryDomainHash()": "c78946a3",
    "removeGateway(uint256)": "e5dac703",
    "replaceGateway(uint256,string)": "acc0f7b1",
    "resetGateway()": "d27a1e7d",
    "resolve(bytes,bytes)": "9061b923",
    "resolveWithoutProof(bytes,bytes)": "8e47aeb2",
    "secondaryDomainHash()": "42f0bfd1",
    "secondaryLabelHash()": "aab9d2fc",
    "supportsInterface(bytes4)": "01ffc9a7",
    "withdrawEther()": "7362377b",
    "withdrawToken(address,uint256)": "9e281a98"
  },
  "id": 9
}